{
  "contractName": "Counter",
  "abi": [
    {
      "constant": true,
      "inputs": [],
      "name": "trasactionCount",
      "outputs": [
        {
          "internalType": "uint256",
          "name": "",
          "type": "uint256"
        }
      ],
      "payable": false,
      "stateMutability": "view",
      "type": "function"
    },
    {
      "constant": false,
      "inputs": [],
      "name": "AddTransaction",
      "outputs": [],
      "payable": false,
      "stateMutability": "nonpayable",
      "type": "function"
    }
  ],
  "bytecode": "0x608060405260008055348015601357600080fd5b5060a9806100226000396000f3fe6080604052348015600f57600080fd5b506004361060325760003560e01c8063d8a6e767146037578063e019d07714603f575b600080fd5b603d605b565b005b6045606e565b6040518082815260200191505060405180910390f35b6000808154809291906001019190505550565b6000548156fea265627a7a723158200f58579aa1bc7690505a94c2e67c8372077dc15ee230c91c74f8c2dbd72cdae264736f6c63430005100032",
  "source": "pragma solidity 0.5.16;\r\ncontract Counter {\r\n  uint public trasactionCount = 0;\r\n  \r\n  function AddTransaction() public {\r\n    trasactionCount++;\r\n  }\r\n}",
  "sourcePath": "C:/Users/rohan/Desktop/Revathi/IEEEHack/SeedChain/seed/contracts/Counter.sol",
  "compiler": {
    "name": "solc",
    "version": "0.5.16+commit.9c3226ce.Emscripten.clang"
  },
  "schemaVersion": "3.3.1",
  "updatedAt": "2020-10-30T11:26:31.469Z",
  "networkType": "ethereum",
  "devdoc": {
    "methods": {}
  },
  "userdoc": {
    "methods": {}
  }
}