{
  "contractName": "Counter",
  "abi": [
    {
      "constant": true,
      "inputs": [],
      "name": "trasactionCount",
      "outputs": [
        {
          "name": "",
          "type": "uint256"
        }
      ],
      "payable": false,
      "stateMutability": "view",
      "type": "function",
      "signature": "0xe019d077"
    },
    {
      "constant": false,
      "inputs": [],
      "name": "AddTransaction",
      "outputs": [],
      "payable": false,
      "stateMutability": "nonpayable",
      "type": "function",
      "signature": "0xd8a6e767"
    }
  ],
  "bytecode": "0x60806040526000805534801561001457600080fd5b5060c2806100236000396000f3fe60806040526004361060485763ffffffff7c0100000000000000000000000000000000000000000000000000000000600035041663d8a6e7678114604d578063e019d077146061575b600080fd5b348015605857600080fd5b50605f6085565b005b348015606c57600080fd5b5060736090565b60408051918252519081900360200190f35b600080546001019055565b6000548156fea165627a7a723058204b333c1a0d1597ae6626c12e44bb07ca61f3e3a169fa4d610c0f8dddac4e8c690029",
  "source": "pragma solidity ^0.5.0;\r\ncontract Counter {\r\n  uint public trasactionCount = 0;\r\n  \r\n  function AddTransaction() public {\r\n    trasactionCount++;\r\n  }\r\n}",
  "sourcePath": "D:/IEEE Hackathon/SeedChain/contracts/Counter.sol",
  "compiler": {
    "name": "solc",
    "version": "0.5.0+commit.1d4f565a.Emscripten.clang"
  },
  "schemaVersion": "3.0.1",
  "updatedAt": "2020-10-30T16:44:32.546Z",
  "devdoc": {
    "methods": {}
  },
  "userdoc": {
    "methods": {}
  }
}