{
  "contractName": "FarmerRole",
  "abi": [
    {
      "anonymous": false,
      "inputs": [
        {
          "indexed": true,
          "internalType": "address",
          "name": "account",
          "type": "address"
        }
      ],
      "name": "FarmerAdded",
      "type": "event"
    },
    {
      "anonymous": false,
      "inputs": [
        {
          "indexed": true,
          "internalType": "address",
          "name": "account",
          "type": "address"
        }
      ],
      "name": "FarmerRemoved",
      "type": "event"
    },
    {
      "inputs": [
        {
          "internalType": "address",
          "name": "account",
          "type": "address"
        }
      ],
      "name": "isFarmer",
      "outputs": [
        {
          "internalType": "bool",
          "name": "",
          "type": "bool"
        }
      ],
      "stateMutability": "view",
      "type": "function"
    },
    {
      "inputs": [
        {
          "internalType": "address",
          "name": "account",
          "type": "address"
        }
      ],
      "name": "addFarmer",
      "outputs": [],
      "stateMutability": "nonpayable",
      "type": "function"
    },
    {
      "inputs": [
        {
          "internalType": "address",
          "name": "account",
          "type": "address"
        }
      ],
      "name": "removeFarmer",
      "outputs": [],
      "stateMutability": "nonpayable",
      "type": "function"
    }
  ],
  "bytecode": "0x608060405234801561001057600080fd5b5061027f806100206000396000f3fe608060405234801561001057600080fd5b506004361061005d577c0100000000000000000000000000000000000000000000000000000000600035046380c3f96d8114610062578063b94290691461008a578063e6bf3fdc146100c4575b600080fd5b6100886004803603602081101561007857600080fd5b5035600160a060020a03166100ea565b005b6100b0600480360360208110156100a057600080fd5b5035600160a060020a031661012c565b604080519115158252519081900360200190f35b610088600480360360208110156100da57600080fd5b5035600160a060020a031661013e565b6100f5600082610180565b604051600160a060020a038216907f2e0ded4123377a3c2bc9a26f1717655a129e2f20752924d42e730ec89c83dbd090600090a250565b600061013881836101cc565b92915050565b610149600082610201565b604051600160a060020a038216907fa5e0f060af304ab17dd418c7927e3da3ae7868189bf387aee09ab179ccc572f290600090a250565b600160a060020a03811661019357600080fd5b61019d82826101cc565b156101a757600080fd5b600160a060020a0316600090815260209190915260409020805460ff19166001179055565b6000600160a060020a0382166101e157600080fd5b50600160a060020a03166000908152602091909152604090205460ff1690565b600160a060020a03811661021457600080fd5b61021e82826101cc565b61022757600080fd5b600160a060020a0316600090815260209190915260409020805460ff1916905556fea26469706673582212207dafef63eb1080dd07a6fe3f83d323024774f74d0afc420533314dd933b2593764736f6c63430007000033",
  "immutableReferences": {},
  "source": "pragma solidity ^0.7.0;\r\n\r\n// Import the library 'Roles'\r\nimport \"./Roles.sol\";\r\n\r\ncontract FarmerRole {\r\n  using Roles for Roles.Role;\r\n\r\n  // Define 2 events, one for Adding, and other for Removing\r\n  event FarmerAdded(address indexed account);\r\n  event FarmerRemoved(address indexed account);\r\n\r\n  Roles.Role private farmers;\r\n\r\n  function isFarmer(address account) public view returns (bool) {\r\n    return farmers.has(account);\r\n  }\r\n\r\n  modifier onlyFarmer() {\r\n    require(isFarmer(msg.sender),\r\n    \"Only Farmers can access this function.\");\r\n    _;\r\n  }\r\n\r\n  function addFarmer(address account) public {\r\n    farmers.add(account);\r\n    emit FarmerAdded(account);\r\n  }\r\n\r\n  function removeFarmer(address account) public {\r\n    farmers.remove(account);\r\n    emit FarmerRemoved(account);\r\n  }\r\n}\r\n",
  "sourcePath": "D:\\IEEE Hackathon\\SeedChain\\contracts\\roles\\FarmerRole.sol",
  "compiler": {
    "name": "solc",
    "version": "0.7.0+commit.9e61f92b.Emscripten.clang"
  },
  "schemaVersion": "3.3.1",
  "updatedAt": "2020-10-31T18:39:53.227Z",
  "devdoc": {
    "kind": "dev",
    "methods": {},
    "version": 1
  },
  "userdoc": {
    "kind": "user",
    "methods": {},
    "version": 1
  }
}