{
  "contractName": "InspectorRole",
  "abi": [
    {
      "anonymous": false,
      "inputs": [
        {
          "indexed": true,
          "name": "account",
          "type": "address"
        }
      ],
      "name": "InspectorAdded",
      "type": "event"
    },
    {
      "anonymous": false,
      "inputs": [
        {
          "indexed": true,
          "name": "account",
          "type": "address"
        }
      ],
      "name": "InspectorRemoved",
      "type": "event"
    },
    {
      "constant": true,
      "inputs": [
        {
          "name": "account",
          "type": "address"
        }
      ],
      "name": "isInspector",
      "outputs": [
        {
          "name": "",
          "type": "bool"
        }
      ],
      "payable": false,
      "stateMutability": "view",
      "type": "function"
    },
    {
      "constant": false,
      "inputs": [
        {
          "name": "account",
          "type": "address"
        }
      ],
      "name": "addInspector",
      "outputs": [],
      "payable": false,
      "stateMutability": "nonpayable",
      "type": "function"
    },
    {
      "constant": false,
      "inputs": [],
      "name": "renounceInspector",
      "outputs": [],
      "payable": false,
      "stateMutability": "nonpayable",
      "type": "function"
    }
  ],
  "bytecode": "0x608060405234801561001057600080fd5b506102b1806100206000396000f3fe6080604052600436106100565763ffffffff7c01000000000000000000000000000000000000000000000000000000006000350416630b20dbbe811461005b5780632cdad41c146100725780637e458492146100b9575b600080fd5b34801561006757600080fd5b506100706100ec565b005b34801561007e57600080fd5b506100a56004803603602081101561009557600080fd5b5035600160a060020a03166100f7565b604080519115158252519081900360200190f35b3480156100c557600080fd5b50610070600480360360208110156100dc57600080fd5b5035600160a060020a031661010f565b6100f53361011b565b565b6000610109818363ffffffff61012416565b92915050565b6101188161015b565b50565b610118816101a3565b6000600160a060020a038216151561013b57600080fd5b50600160a060020a03166000908152602091909152604090205460ff1690565b61016c60008263ffffffff6101eb16565b604051600160a060020a038216907f9ca2a3611f65b351a79d20d5314a16e37fe9b947d2a36232e101bd615994450390600090a250565b6101b460008263ffffffff61023916565b604051600160a060020a038216907f737c9e54b555afb1794817809534974cb61ead2136d82d4a8fecb34d0932922090600090a250565b600160a060020a038116151561020057600080fd5b61020a8282610124565b1561021457600080fd5b600160a060020a0316600090815260209190915260409020805460ff19166001179055565b600160a060020a038116151561024e57600080fd5b6102588282610124565b151561026357600080fd5b600160a060020a0316600090815260209190915260409020805460ff1916905556fea165627a7a723058206134292eac525c33566c4b06ca7ad2769338a4f305d126fea3d54b9f6b3347ec0029",
  "source": "pragma solidity ^0.5.0;\r\n\r\n// Import the library 'Roles'\r\nimport \"./Roles.sol\";\r\n\r\n// Define a contract 'InspectorRole' to manage this role - add, remove, check\r\ncontract InspectorRole {\r\n  using Roles for Roles.Role;\r\n\r\n  // Define 2 events, one for Adding, and other for Removing\r\n  event InspectorAdded(address indexed account);\r\n  event InspectorRemoved(address indexed account);\r\n\r\n  // Define a struct 'inspectors' by inheriting from 'Roles' library, struct Role\r\n  Roles.Role private inspectors;\r\n\r\n  // Define a function 'isInspector' to check this role\r\n  function isInspector(address account) public view returns (bool) {\r\n    return inspectors.has(account);\r\n  }\r\n\r\n  // Define a function 'addInspector' that adds this role\r\n  function addInspector(address account) public {\r\n    _addInspector(account);\r\n  }\r\n\r\n  // Define a function 'renounceInspector' to renounce this role\r\n  function renounceInspector() public {\r\n    _renounceInspector(msg.sender);\r\n  }\r\n  \r\n  // Define a function '_renounceInspector' to explicitly renounce this role\r\n  function _renounceInspector(address account) internal {\r\n      _removeInspector(account);\r\n  }\r\n\r\n  // Define an internal function '_addInspector' to add this role, called by 'addInspector'\r\n  function _addInspector(address account) internal {\r\n    inspectors.add(account);\r\n    emit InspectorAdded(account);\r\n  }\r\n\r\n  // Define an internal function '_removeInspector' to remove this role, called by '_renounceInspector'\r\n  function _removeInspector(address account) internal {\r\n    inspectors.remove(account);\r\n    emit InspectorRemoved(account);\r\n  }\r\n}\r\n",
  "sourcePath": "D:\\IEEE Hackathon\\SeedChain\\contracts\\roles\\InspectorRole.sol",
  "compiler": {
    "name": "solc",
    "version": "0.5.0+commit.1d4f565a.Emscripten.clang"
  },
  "schemaVersion": "3.0.1",
  "updatedAt": "2020-10-30T16:44:30.050Z",
  "devdoc": {
    "methods": {}
  },
  "userdoc": {
    "methods": {}
  }
}