{
  "contractName": "LabAnalystRole",
  "abi": [
    {
      "anonymous": false,
      "inputs": [
        {
          "indexed": true,
          "name": "account",
          "type": "address"
        }
      ],
      "name": "LabAnalystAdded",
      "type": "event"
    },
    {
      "anonymous": false,
      "inputs": [
        {
          "indexed": true,
          "name": "account",
          "type": "address"
        }
      ],
      "name": "LabAnalystRemoved",
      "type": "event"
    },
    {
      "constant": true,
      "inputs": [
        {
          "name": "account",
          "type": "address"
        }
      ],
      "name": "isLabAnalyst",
      "outputs": [
        {
          "name": "",
          "type": "bool"
        }
      ],
      "payable": false,
      "stateMutability": "view",
      "type": "function"
    },
    {
      "constant": false,
      "inputs": [
        {
          "name": "account",
          "type": "address"
        }
      ],
      "name": "addLabAnalyst",
      "outputs": [],
      "payable": false,
      "stateMutability": "nonpayable",
      "type": "function"
    },
    {
      "constant": false,
      "inputs": [],
      "name": "renounceLabAnalyst",
      "outputs": [],
      "payable": false,
      "stateMutability": "nonpayable",
      "type": "function"
    }
  ],
  "bytecode": "0x608060405234801561001057600080fd5b506102b1806100206000396000f3fe6080604052600436106100565763ffffffff7c010000000000000000000000000000000000000000000000000000000060003504166356710784811461005b578063c40a1fcf146100a2578063d46c7c21146100b9575b600080fd5b34801561006757600080fd5b5061008e6004803603602081101561007e57600080fd5b5035600160a060020a03166100ec565b604080519115158252519081900360200190f35b3480156100ae57600080fd5b506100b7610104565b005b3480156100c557600080fd5b506100b7600480360360208110156100dc57600080fd5b5035600160a060020a031661010f565b60006100fe818363ffffffff61011b16565b92915050565b61010d33610152565b565b6101188161015b565b50565b6000600160a060020a038216151561013257600080fd5b50600160a060020a03166000908152602091909152604090205460ff1690565b610118816101a3565b61016c60008263ffffffff6101eb16565b604051600160a060020a038216907fa3b7370cc2eb2b062a55e1015d19bcd6c48fc89ba7c709901a656cb51ea5f0bf90600090a250565b6101b460008263ffffffff61023916565b604051600160a060020a038216907fd967aa181206c15faf057c34edec552c9ecd407af60c75517673c7731d98b86690600090a250565b600160a060020a038116151561020057600080fd5b61020a828261011b565b1561021457600080fd5b600160a060020a0316600090815260209190915260409020805460ff19166001179055565b600160a060020a038116151561024e57600080fd5b610258828261011b565b151561026357600080fd5b600160a060020a0316600090815260209190915260409020805460ff1916905556fea165627a7a723058208c5a81503febb0dca882deaa78ee6c4e79c9d06f988229383f9807fbe8da29010029",
  "source": "pragma solidity ^0.5.0;\r\n\r\n// Import the library 'Roles'\r\nimport \"./Roles.sol\";\r\n\r\n// Define a contract 'LabAnalystRole' to manage this role - add, remove, check\r\ncontract LabAnalystRole {\r\n  using Roles for Roles.Role;\r\n\r\n  // Define 2 events, one for Adding, and other for Removing\r\n  event LabAnalystAdded(address indexed account);\r\n  event LabAnalystRemoved(address indexed account);\r\n\r\n  // Define a struct 'labanalysts' by inheriting from 'Roles' library, struct Role\r\n  Roles.Role private labanalysts;\r\n\r\n  // Define a function 'isLabAnalyst' to check this role\r\n  function isLabAnalyst(address account) public view returns (bool) {\r\n    return labanalysts.has(account);\r\n  }\r\n\r\n  // Define a function 'addLabAnalyst' that adds this role\r\n  function addLabAnalyst(address account) public {\r\n    _addLabAnalyst(account);\r\n  }\r\n\r\n  // Define a function 'renounceLabAnalyst' to renounce this role\r\n  function renounceLabAnalyst() public {\r\n    _renounceLabAnalyst(msg.sender);\r\n  }\r\n  \r\n  // Define a function '_renounceLabAnalyst' to explicitly renounce this role\r\n  function _renounceLabAnalyst(address account) internal {\r\n      _removeLabAnalyst(account);\r\n  }\r\n\r\n  // Define an internal function '_addLabAnalyst' to add this role, called by 'addLabAnalyst'\r\n  function _addLabAnalyst(address account) internal {\r\n    labanalysts.add(account);\r\n    emit LabAnalystAdded(account);\r\n  }\r\n\r\n  // Define an internal function '_removeLabAnalyst' to remove this role, called by '_renounceLabAnalyst'\r\n  function _removeLabAnalyst(address account) internal {\r\n    labanalysts.remove(account);\r\n    emit LabAnalystRemoved(account);\r\n  }\r\n}\r\n",
  "sourcePath": "D:\\IEEE Hackathon\\SeedChain\\contracts\\roles\\LabAnalystRole.sol",
  "compiler": {
    "name": "solc",
    "version": "0.5.0+commit.1d4f565a.Emscripten.clang"
  },
  "schemaVersion": "3.0.1",
  "updatedAt": "2020-10-30T16:44:30.052Z",
  "devdoc": {
    "methods": {}
  },
  "userdoc": {
    "methods": {}
  }
}