{
  "contractName": "SCARole",
  "abi": [
    {
      "anonymous": false,
      "inputs": [
        {
          "indexed": true,
          "internalType": "address",
          "name": "account",
          "type": "address"
        }
      ],
      "name": "SCAAdded",
      "type": "event"
    },
    {
      "anonymous": false,
      "inputs": [
        {
          "indexed": true,
          "internalType": "address",
          "name": "account",
          "type": "address"
        }
      ],
      "name": "SCARemoved",
      "type": "event"
    },
    {
      "inputs": [
        {
          "internalType": "address",
          "name": "account",
          "type": "address"
        }
      ],
      "name": "isSCA",
      "outputs": [
        {
          "internalType": "bool",
          "name": "",
          "type": "bool"
        }
      ],
      "stateMutability": "view",
      "type": "function"
    },
    {
      "inputs": [
        {
          "internalType": "address",
          "name": "account",
          "type": "address"
        }
      ],
      "name": "addSCA",
      "outputs": [],
      "stateMutability": "nonpayable",
      "type": "function"
    },
    {
      "inputs": [
        {
          "internalType": "address",
          "name": "account",
          "type": "address"
        }
      ],
      "name": "removeSCA",
      "outputs": [],
      "stateMutability": "nonpayable",
      "type": "function"
    }
  ],
  "bytecode": "0x608060405234801561001057600080fd5b5061027f806100206000396000f3fe608060405234801561001057600080fd5b506004361061005d577c01000000000000000000000000000000000000000000000000000000006000350463472507698114610062578063a68412531461009c578063e1338061146100c4575b600080fd5b6100886004803603602081101561007857600080fd5b5035600160a060020a03166100ea565b604080519115158252519081900360200190f35b6100c2600480360360208110156100b257600080fd5b5035600160a060020a03166100fc565b005b6100c2600480360360208110156100da57600080fd5b5035600160a060020a031661013e565b60006100f68183610180565b92915050565b6101076000826101b5565b604051600160a060020a038216907feba1cd1854e190f6665145353b915ff069af7906d1d7f706a872e7fede84517390600090a250565b610149600082610201565b604051600160a060020a038216907f2641281878622361a13e893a468f5bebcd09d4813a887b270a25da7a9a884f7390600090a250565b6000600160a060020a03821661019557600080fd5b50600160a060020a03166000908152602091909152604090205460ff1690565b600160a060020a0381166101c857600080fd5b6101d28282610180565b156101dc57600080fd5b600160a060020a0316600090815260209190915260409020805460ff19166001179055565b600160a060020a03811661021457600080fd5b61021e8282610180565b61022757600080fd5b600160a060020a0316600090815260209190915260409020805460ff1916905556fea2646970667358221220098b9a63fc63937195b89ac897a7ee95287a252bfc7fb0dc87f75776206d102464736f6c63430007000033",
  "immutableReferences": {},
  "source": "// SPDX-License-Identifier: GPL-3.0\r\npragma solidity ^0.7.0;\r\n\r\n// Import the library 'Roles'\r\nimport \"./Roles.sol\";\r\n\r\ncontract SCARole {\r\n  using Roles for Roles.Role;\r\n\r\n  // Define 2 events, one for Adding, and other for Removing\r\n  event SCAAdded(address indexed account);\r\n  event SCARemoved(address indexed account);\r\n\r\n  // Define a struct 'scas' by inheriting from 'Roles' library, struct Role\r\n  Roles.Role private scas;\r\n\r\n  modifier onlySCA() {\r\n    require(isSCA(msg.sender),\r\n    \"Only SCAs can access this function.\");\r\n    _;\r\n  }\r\n\r\n  function isSCA(address account) public view returns (bool) {\r\n    return scas.has(account);\r\n  }\r\n\r\n  function addSCA(address account) public {\r\n    scas.add(account);\r\n    emit SCAAdded(account);\r\n  }\r\n\r\n  function removeSCA(address account) public {\r\n    scas.remove(account);\r\n    emit SCARemoved(account);\r\n  }\r\n}\r\n",
  "sourcePath": "D:\\IEEE Hackathon\\SeedChain\\contracts\\roles\\SeedCertificationAgency.sol",
  "compiler": {
    "name": "solc",
    "version": "0.7.0+commit.9e61f92b.Emscripten.clang"
  },
  "schemaVersion": "3.3.1",
  "updatedAt": "2020-10-31T18:39:53.254Z",
  "devdoc": {
    "kind": "dev",
    "methods": {},
    "version": 1
  },
  "userdoc": {
    "kind": "user",
    "methods": {},
    "version": 1
  }
}