{
  "contractName": "SCARole",
  "abi": [
    {
      "anonymous": false,
      "inputs": [
        {
          "indexed": true,
          "internalType": "address",
          "name": "account",
          "type": "address"
        }
      ],
      "name": "SCAAdded",
      "type": "event"
    },
    {
      "anonymous": false,
      "inputs": [
        {
          "indexed": true,
          "internalType": "address",
          "name": "account",
          "type": "address"
        }
      ],
      "name": "SCARemoved",
      "type": "event"
    },
    {
      "inputs": [
        {
          "internalType": "address",
          "name": "account",
          "type": "address"
        }
      ],
      "name": "isSCA",
      "outputs": [
        {
          "internalType": "bool",
          "name": "",
          "type": "bool"
        }
      ],
      "stateMutability": "view",
      "type": "function"
    },
    {
      "inputs": [
        {
          "internalType": "address",
          "name": "account",
          "type": "address"
        }
      ],
      "name": "addSCA",
      "outputs": [],
      "stateMutability": "nonpayable",
      "type": "function"
    },
    {
      "inputs": [
        {
          "internalType": "address",
          "name": "account",
          "type": "address"
        }
      ],
      "name": "removeSCA",
      "outputs": [],
      "stateMutability": "nonpayable",
      "type": "function"
    }
  ],
  "bytecode": "0x608060405234801561001057600080fd5b50610418806100206000396000f3fe608060405234801561001057600080fd5b50600436106100415760003560e01c80634725076914610046578063a6841253146100a0578063e1338061146100e4575b600080fd5b6100886004803603602081101561005c57600080fd5b81019080803573ffffffffffffffffffffffffffffffffffffffff169060200190929190505050610128565b60405180821515815260200191505060405180910390f35b6100e2600480360360208110156100b657600080fd5b81019080803573ffffffffffffffffffffffffffffffffffffffff169060200190929190505050610145565b005b610126600480360360208110156100fa57600080fd5b81019080803573ffffffffffffffffffffffffffffffffffffffff16906020019092919050505061019f565b005b600061013e8260006101f990919063ffffffff16565b9050919050565b61015981600061028b90919063ffffffff16565b8073ffffffffffffffffffffffffffffffffffffffff167feba1cd1854e190f6665145353b915ff069af7906d1d7f706a872e7fede84517360405160405180910390a250565b6101b381600061033790919063ffffffff16565b8073ffffffffffffffffffffffffffffffffffffffff167f2641281878622361a13e893a468f5bebcd09d4813a887b270a25da7a9a884f7360405160405180910390a250565b60008073ffffffffffffffffffffffffffffffffffffffff168273ffffffffffffffffffffffffffffffffffffffff16141561023457600080fd5b8260000160008373ffffffffffffffffffffffffffffffffffffffff1673ffffffffffffffffffffffffffffffffffffffff16815260200190815260200160002060009054906101000a900460ff16905092915050565b600073ffffffffffffffffffffffffffffffffffffffff168173ffffffffffffffffffffffffffffffffffffffff1614156102c557600080fd5b6102cf82826101f9565b156102d957600080fd5b60018260000160008373ffffffffffffffffffffffffffffffffffffffff1673ffffffffffffffffffffffffffffffffffffffff16815260200190815260200160002060006101000a81548160ff0219169083151502179055505050565b600073ffffffffffffffffffffffffffffffffffffffff168173ffffffffffffffffffffffffffffffffffffffff16141561037157600080fd5b61037b82826101f9565b61038457600080fd5b60008260000160008373ffffffffffffffffffffffffffffffffffffffff1673ffffffffffffffffffffffffffffffffffffffff16815260200190815260200160002060006101000a81548160ff021916908315150217905550505056fea26469706673582212203dee684956490a9dc1917c8e556f03863d7ac3db032c2d7dadc200c0b78a4bc764736f6c63430007000033",
  "immutableReferences": {},
  "source": "// SPDX-License-Identifier: GPL-3.0\npragma solidity ^0.7.0;\n\n// Import the library 'Roles'\nimport \"./Roles.sol\";\n\ncontract SCARole {\n  using Roles for Roles.Role;\n\n  // Define 2 events, one for Adding, and other for Removing\n  event SCAAdded(address indexed account);\n  event SCARemoved(address indexed account);\n\n  // Define a struct 'scas' by inheriting from 'Roles' library, struct Role\n  Roles.Role private scas;\n\n  modifier onlySCA() {\n    require(isSCA(msg.sender),\n    \"Only SCAs can access this function.\");\n    _;\n  }\n\n  function isSCA(address account) public view returns (bool) {\n    return scas.has(account);\n  }\n\n  function addSCA(address account) public {\n    scas.add(account);\n    emit SCAAdded(account);\n  }\n\n  function removeSCA(address account) public {\n    scas.remove(account);\n    emit SCARemoved(account);\n  }\n}\n",
  "sourcePath": "C:/Users/RIYA/Downloads/IEEE Hack/SeedChain/contracts/roles/SeedCertificationAgency.sol",
  "compiler": {
    "name": "solc",
    "version": "0.7.0+commit.9e61f92b.Emscripten.clang"
  },
  "schemaVersion": "3.3.1",
  "updatedAt": "2020-10-30T19:35:52.074Z",
  "devdoc": {
    "kind": "dev",
    "methods": {},
    "version": 1
  },
  "userdoc": {
    "kind": "user",
    "methods": {},
    "version": 1
  }
}