{
  "contractName": "SPARole",
  "abi": [
    {
      "anonymous": false,
      "inputs": [
        {
          "indexed": true,
          "internalType": "address",
          "name": "account",
          "type": "address"
        }
      ],
      "name": "SGAdded",
      "type": "event"
    },
    {
      "anonymous": false,
      "inputs": [
        {
          "indexed": true,
          "internalType": "address",
          "name": "account",
          "type": "address"
        }
      ],
      "name": "SGRemoved",
      "type": "event"
    },
    {
      "anonymous": false,
      "inputs": [
        {
          "indexed": true,
          "internalType": "address",
          "name": "account",
          "type": "address"
        }
      ],
      "name": "SPAAdded",
      "type": "event"
    },
    {
      "anonymous": false,
      "inputs": [
        {
          "indexed": true,
          "internalType": "address",
          "name": "account",
          "type": "address"
        }
      ],
      "name": "SPARemoved",
      "type": "event"
    },
    {
      "inputs": [
        {
          "internalType": "address",
          "name": "account",
          "type": "address"
        }
      ],
      "name": "isSPA",
      "outputs": [
        {
          "internalType": "bool",
          "name": "",
          "type": "bool"
        }
      ],
      "stateMutability": "view",
      "type": "function"
    },
    {
      "inputs": [
        {
          "internalType": "address",
          "name": "account",
          "type": "address"
        }
      ],
      "name": "addSPA",
      "outputs": [],
      "stateMutability": "nonpayable",
      "type": "function"
    },
    {
      "inputs": [
        {
          "internalType": "address",
          "name": "account",
          "type": "address"
        }
      ],
      "name": "removeSPA",
      "outputs": [],
      "stateMutability": "nonpayable",
      "type": "function"
    },
    {
      "inputs": [
        {
          "internalType": "address",
          "name": "account",
          "type": "address"
        },
        {
          "internalType": "string",
          "name": "name",
          "type": "string"
        },
        {
          "internalType": "string",
          "name": "id",
          "type": "string"
        }
      ],
      "name": "addSG",
      "outputs": [],
      "stateMutability": "nonpayable",
      "type": "function"
    },
    {
      "inputs": [
        {
          "internalType": "address",
          "name": "account",
          "type": "address"
        }
      ],
      "name": "removeSG",
      "outputs": [],
      "stateMutability": "nonpayable",
      "type": "function"
    }
  ],
  "bytecode": "0x608060405234801561001057600080fd5b50610bb3806100206000396000f3fe608060405234801561001057600080fd5b5060043610610073577c010000000000000000000000000000000000000000000000000000000060003504631753596a81146100785780631ba2bbe6146100b25780631ece8c6e146100da5780636e807e5e14610100578063e63b3b2a1461023d575b600080fd5b61009e6004803603602081101561008e57600080fd5b5035600160a060020a0316610263565b604080519115158252519081900360200190f35b6100d8600480360360208110156100c857600080fd5b5035600160a060020a0316610276565b005b6100d8600480360360208110156100f057600080fd5b5035600160a060020a03166102b8565b6100d86004803603606081101561011657600080fd5b600160a060020a03823516919081019060408101602082013564010000000081111561014157600080fd5b82018360208201111561015357600080fd5b8035906020019184600183028401116401000000008311171561017557600080fd5b91908080601f01602080910402602001604051908101604052809392919081815260200183838082843760009201919091525092959493602081019350359150506401000000008111156101c857600080fd5b8201836020820111156101da57600080fd5b803590602001918460018302840111640100000000831117156101fc57600080fd5b91908080601f016020809104026020016040519081016040528093929190818152602001838380828437600092019190915250929550610608945050505050565b6100d86004803603602081101561025357600080fd5b5035600160a060020a03166107c1565b6000610270600283610803565b92915050565b610281600282610838565b604051600160a060020a038216907f3b69f2ed1fffc4ad7adb52b8b88069c16f9dd89f66c0f6d0ffbb92290bc9c3e890600090a250565b6102c133610263565b610316576040517f08c379a0000000000000000000000000000000000000000000000000000000008152600401808060200182810382526023815260200180610b5b6023913960400191505060405180910390fd5b61031e6108cc565b600160a060020a0382811660009081526001602081815260409283902083516060810185528154909516855280830180548551600261010096831615969096026000190190911694909404601f8101849004840285018401909552848452909385830193928301828280156103d45780601f106103a9576101008083540402835291602001916103d4565b820191906000526020600020905b8154815290600101906020018083116103b757829003601f168201915b5050509183525050600282810180546040805160206001841615610100026000190190931694909404601f810183900483028501830190915280845293810193908301828280156104665780601f1061043b57610100808354040283529160200191610466565b820191906000526020600020905b81548152906001019060200180831161044957829003601f168201915b50505091909252505033600090815260208190526040812092935090505b81548110156104d1578260000151600160a060020a03168282815481106104a757fe5b6000918252602090912060039091020154600160a060020a031614156104cc576104d1565b610484565b8154829060001981019081106104e357fe5b90600052602060002090600302018282815481106104fd57fe5b600091825260209091208254600390920201805473ffffffffffffffffffffffffffffffffffffffff1916600160a060020a0390921691909117815560018083018054610561928085019291600260001992821615610100029290920116046108f6565b50600282810180546105869284810192916000196101006001831615020116046108f6565b509050508180548061059457fe5b600082815260208120600360001990930192830201805473ffffffffffffffffffffffffffffffffffffffff19168155906105d2600183018261097b565b6105e060028301600061097b565b505090553360009081526020819052604090208254610601919084906109c2565b5050505050565b61061133610263565b610666576040517f08c379a0000000000000000000000000000000000000000000000000000000008152600401808060200182810382526023815260200180610b5b6023913960400191505060405180910390fd5b61066e6108cc565b5060408051606081018252600160a060020a0385811682526020808301868152838501869052336000908152808352948520805460018082018355918752958390208551600390970201805473ffffffffffffffffffffffffffffffffffffffff191696909416959095178355518051939485946106f3939185019290910190610a8e565b506040820151805161070f916002840191602090910190610a8e565b505050600160a060020a0384811660009081526001602081815260409092208451815473ffffffffffffffffffffffffffffffffffffffff19169416939093178355838201518051859493610768938501920190610a8e565b5060408201518051610784916002840191602090910190610a8e565b5050604051600160a060020a03861691507fcb1507dcdf2d9fc501838213cec41003537ac312869deb71283d076fab00892c90600090a250505050565b6107cc600282610880565b604051600160a060020a038216907f85782b7ca5ff6b695aa818226ff1655734742883fb10256cb9fa660f49aedc0990600090a250565b6000600160a060020a03821661081857600080fd5b50600160a060020a03166000908152602091909152604090205460ff1690565b600160a060020a03811661084b57600080fd5b6108558282610803565b61085e57600080fd5b600160a060020a0316600090815260209190915260409020805460ff19169055565b600160a060020a03811661089357600080fd5b61089d8282610803565b156108a757600080fd5b600160a060020a0316600090815260209190915260409020805460ff19166001179055565b60405180606001604052806000600160a060020a0316815260200160608152602001606081525090565b828054600181600116156101000203166002900490600052602060002090601f016020900481019282601f1061092f578054855561096b565b8280016001018555821561096b57600052602060002091601f016020900482015b8281111561096b578254825591600101919060010190610950565b50610977929150610afc565b5090565b50805460018160011615610100020316600290046000825580601f106109a157506109bf565b601f0160209004906000526020600020908101906109bf9190610afc565b50565b828054828255906000526020600020906003028101928215610a825760005260206000209160030282015b82811115610a82578254825473ffffffffffffffffffffffffffffffffffffffff1916600160a060020a039091161782556001808401805485928592610a4b92828501926002600019918316156101000291909101909116046108f6565b5060028281018054610a709284810192916000196101006001831615020116046108f6565b505050916003019190600301906109ed565b50610977929150610b11565b828054600181600116156101000203166002900490600052602060002090601f016020900481019282601f10610acf57805160ff191683800117855561096b565b8280016001018555821561096b579182015b8281111561096b578251825591602001919060010190610ae1565b5b808211156109775760008155600101610afd565b8082111561097757805473ffffffffffffffffffffffffffffffffffffffff191681556000610b43600183018261097b565b610b5160028301600061097b565b50600301610b1156fe4f6e6c7920535041732063616e20706572666f726d20746869732066756e6374696f6ea264697066735822122051939b0a477923503ac9f9209e2238a96329bb6caaafe39de335c6d6cabbbaf564736f6c63430007000033",
  "immutableReferences": {},
  "source": "// SPDX-License-Identifier: GPL-3.0\r\npragma solidity ^0.7.0;\r\n\r\nimport \"./Roles.sol\";\r\n\r\n// Define a contract 'SPARole' to manage this role - add, remove, check\r\ncontract SPARole {\r\n    using Roles for Roles.Role;\r\n\r\n    // define a struct seedGrower that grows seeds\r\n    struct seedGrower {\r\n        address nodeAddress;\r\n        string sgName;\r\n        string sgId;\r\n    }\r\n\r\n    mapping(address => seedGrower[]) sgList;\r\n    mapping(address => seedGrower) sgAccount;\r\n\r\n    // Define 2 events, one for Adding, and other for Removing\r\n  event SPAAdded(address indexed account);\r\n  event SPARemoved(address indexed account);\r\n  // Define 2 events, one for Adding, and other for Removing\r\n  event SGAdded(address indexed account);\r\n  event SGRemoved(address indexed account);\r\n\r\n  // define a struct 'spas' by inheriting it from Roles.Role\r\n  Roles.Role private spas;\r\n\r\n  // define a modifier to be used for adding/removing SGs\r\n  modifier onlySPA {\r\n      require(isSPA(msg.sender),\r\n      \"Only SPAs can perform this function\"\r\n      );\r\n      _;\r\n  }\r\n\r\n  // define a function isSPA to check this role\r\n  function isSPA(address account) public view returns (bool) {\r\n      return spas.has(account);\r\n  }\r\n\r\n  // define a function addSPA and remove SPA to add/remove roles\r\n  function addSPA(address account) public {\r\n      spas.add(account);\r\n      emit SPAAdded(account);\r\n  }\r\n\r\n  function removeSPA(address account) public {\r\n      spas.remove(account);\r\n      emit SPARemoved(account);\r\n  }\r\n\r\n  function addSG(address account, string memory name, string memory id) public onlySPA {\r\n      seedGrower memory sg = seedGrower(account, name, id);\r\n      sgList[msg.sender].push(sg);\r\n      sgAccount[account] = sg;\r\n\r\n      emit SGAdded(account);\r\n  }\r\n\r\n  function removeSG(address account) public onlySPA {\r\n      seedGrower memory sg = sgAccount[account];\r\n\r\n      seedGrower[] storage sgArr = sgList[msg.sender];\r\n      uint i=0;\r\n      while(i < sgArr.length) {\r\n          if(sgArr[i].nodeAddress == sg.nodeAddress){\r\n              break;\r\n          }\r\n      }\r\n      sgArr[i] = sgArr[sgArr.length - 1];\r\n      sgArr.pop();\r\n\r\n      sgList[msg.sender] = sgArr;\r\n  }\r\n}",
  "sourcePath": "D:\\IEEE Hackathon\\SeedChain\\contracts\\roles\\SeedProducingAgency.sol",
  "compiler": {
    "name": "solc",
    "version": "0.7.0+commit.9e61f92b.Emscripten.clang"
  },
  "schemaVersion": "3.3.1",
  "updatedAt": "2020-10-31T18:39:53.281Z",
  "devdoc": {
    "kind": "dev",
    "methods": {},
    "version": 1
  },
  "userdoc": {
    "kind": "user",
    "methods": {},
    "version": 1
  }
}