{
  "contractName": "SPARole",
  "abi": [
    {
      "anonymous": false,
      "inputs": [
        {
          "indexed": true,
          "internalType": "address",
          "name": "account",
          "type": "address"
        }
      ],
      "name": "SGAdded",
      "type": "event"
    },
    {
      "anonymous": false,
      "inputs": [
        {
          "indexed": true,
          "internalType": "address",
          "name": "account",
          "type": "address"
        }
      ],
      "name": "SGRemoved",
      "type": "event"
    },
    {
      "anonymous": false,
      "inputs": [
        {
          "indexed": true,
          "internalType": "address",
          "name": "account",
          "type": "address"
        }
      ],
      "name": "SPAAdded",
      "type": "event"
    },
    {
      "anonymous": false,
      "inputs": [
        {
          "indexed": true,
          "internalType": "address",
          "name": "account",
          "type": "address"
        }
      ],
      "name": "SPARemoved",
      "type": "event"
    },
    {
      "inputs": [
        {
          "internalType": "address",
          "name": "account",
          "type": "address"
        }
      ],
      "name": "isSPA",
      "outputs": [
        {
          "internalType": "bool",
          "name": "",
          "type": "bool"
        }
      ],
      "stateMutability": "view",
      "type": "function"
    },
    {
      "inputs": [
        {
          "internalType": "address",
          "name": "account",
          "type": "address"
        }
      ],
      "name": "addSPA",
      "outputs": [],
      "stateMutability": "nonpayable",
      "type": "function"
    },
    {
      "inputs": [
        {
          "internalType": "address",
          "name": "account",
          "type": "address"
        }
      ],
      "name": "removeSPA",
      "outputs": [],
      "stateMutability": "nonpayable",
      "type": "function"
    },
    {
      "inputs": [
        {
          "internalType": "address",
          "name": "account",
          "type": "address"
        },
        {
          "internalType": "string",
          "name": "name",
          "type": "string"
        },
        {
          "internalType": "string",
          "name": "id",
          "type": "string"
        }
      ],
      "name": "addSG",
      "outputs": [],
      "stateMutability": "nonpayable",
      "type": "function"
    },
    {
      "inputs": [
        {
          "internalType": "address",
          "name": "account",
          "type": "address"
        }
      ],
      "name": "removeSG",
      "outputs": [],
      "stateMutability": "nonpayable",
      "type": "function"
    }
  ],
  "bytecode": "0x608060405234801561001057600080fd5b50611077806100206000396000f3fe608060405234801561001057600080fd5b50600436106100575760003560e01c80631753596a1461005c5780631ba2bbe6146100b65780631ece8c6e146100fa5780636e807e5e1461013e578063e63b3b2a146102b0575b600080fd5b61009e6004803603602081101561007257600080fd5b81019080803573ffffffffffffffffffffffffffffffffffffffff1690602001909291905050506102f4565b60405180821515815260200191505060405180910390f35b6100f8600480360360208110156100cc57600080fd5b81019080803573ffffffffffffffffffffffffffffffffffffffff169060200190929190505050610311565b005b61013c6004803603602081101561011057600080fd5b81019080803573ffffffffffffffffffffffffffffffffffffffff16906020019092919050505061036b565b005b6102ae6004803603606081101561015457600080fd5b81019080803573ffffffffffffffffffffffffffffffffffffffff1690602001909291908035906020019064010000000081111561019157600080fd5b8201836020820111156101a357600080fd5b803590602001918460018302840111640100000000831117156101c557600080fd5b91908080601f016020809104026020016040519081016040528093929190818152602001838380828437600081840152601f19601f8201169050808301925050505050505091929192908035906020019064010000000081111561022857600080fd5b82018360208201111561023a57600080fd5b8035906020019184600183028401116401000000008311171561025c57600080fd5b91908080601f016020809104026020016040519081016040528093929190818152602001838380828437600081840152601f19601f82011690508083019250505050505050919291929050505061083a565b005b6102f2600480360360208110156102c657600080fd5b81019080803573ffffffffffffffffffffffffffffffffffffffff169060200190929190505050610acb565b005b600061030a826002610b2590919063ffffffff16565b9050919050565b610325816002610bb790919063ffffffff16565b8073ffffffffffffffffffffffffffffffffffffffff167f3b69f2ed1fffc4ad7adb52b8b88069c16f9dd89f66c0f6d0ffbb92290bc9c3e860405160405180910390a250565b610374336102f4565b6103c9576040517f08c379a000000000000000000000000000000000000000000000000000000000815260040180806020018281038252602381526020018061101f6023913960400191505060405180910390fd5b6103d1610d0e565b600160008373ffffffffffffffffffffffffffffffffffffffff1673ffffffffffffffffffffffffffffffffffffffff1681526020019081526020016000206040518060600160405290816000820160009054906101000a900473ffffffffffffffffffffffffffffffffffffffff1673ffffffffffffffffffffffffffffffffffffffff1673ffffffffffffffffffffffffffffffffffffffff168152602001600182018054600181600116156101000203166002900480601f01602080910402602001604051908101604052809291908181526020018280546001816001161561010002031660029004801561050a5780601f106104df5761010080835404028352916020019161050a565b820191906000526020600020905b8154815290600101906020018083116104ed57829003601f168201915b50505050508152602001600282018054600181600116156101000203166002900480601f0160208091040260200160405190810160405280929190818152602001828054600181600116156101000203166002900480156105ac5780601f10610581576101008083540402835291602001916105ac565b820191906000526020600020905b81548152906001019060200180831161058f57829003601f168201915b505050505081525050905060008060003373ffffffffffffffffffffffffffffffffffffffff1673ffffffffffffffffffffffffffffffffffffffff168152602001908152602001600020905060005b818054905081101561068757826000015173ffffffffffffffffffffffffffffffffffffffff1682828154811061062f57fe5b906000526020600020906003020160000160009054906101000a900473ffffffffffffffffffffffffffffffffffffffff1673ffffffffffffffffffffffffffffffffffffffff16141561068257610687565b6105fc565b8160018380549050038154811061069a57fe5b90600052602060002090600302018282815481106106b457fe5b90600052602060002090600302016000820160009054906101000a900473ffffffffffffffffffffffffffffffffffffffff168160000160006101000a81548173ffffffffffffffffffffffffffffffffffffffff021916908373ffffffffffffffffffffffffffffffffffffffff16021790555060018201816001019080546001816001161561010002031660029004610750929190610d45565b5060028201816002019080546001816001161561010002031660029004610778929190610d45565b509050508180548061078657fe5b6001900381819060005260206000209060030201600080820160006101000a81549073ffffffffffffffffffffffffffffffffffffffff02191690556001820160006107d29190610dcc565b6002820160006107e29190610dcc565b50509055816000803373ffffffffffffffffffffffffffffffffffffffff1673ffffffffffffffffffffffffffffffffffffffff168152602001908152602001600020908054610833929190610e14565b5050505050565b610843336102f4565b610898576040517f08c379a000000000000000000000000000000000000000000000000000000000815260040180806020018281038252602381526020018061101f6023913960400191505060405180910390fd5b6108a0610d0e565b60405180606001604052808573ffffffffffffffffffffffffffffffffffffffff1681526020018481526020018381525090506000803373ffffffffffffffffffffffffffffffffffffffff1673ffffffffffffffffffffffffffffffffffffffff16815260200190815260200160002081908060018154018082558091505060019003906000526020600020906003020160009091909190915060008201518160000160006101000a81548173ffffffffffffffffffffffffffffffffffffffff021916908373ffffffffffffffffffffffffffffffffffffffff160217905550602082015181600101908051906020019061099e929190610f23565b5060408201518160020190805190602001906109bb929190610f23565b50505080600160008673ffffffffffffffffffffffffffffffffffffffff1673ffffffffffffffffffffffffffffffffffffffff16815260200190815260200160002060008201518160000160006101000a81548173ffffffffffffffffffffffffffffffffffffffff021916908373ffffffffffffffffffffffffffffffffffffffff1602179055506020820151816001019080519060200190610a61929190610f23565b506040820151816002019080519060200190610a7e929190610f23565b509050508373ffffffffffffffffffffffffffffffffffffffff167fcb1507dcdf2d9fc501838213cec41003537ac312869deb71283d076fab00892c60405160405180910390a250505050565b610adf816002610c6290919063ffffffff16565b8073ffffffffffffffffffffffffffffffffffffffff167f85782b7ca5ff6b695aa818226ff1655734742883fb10256cb9fa660f49aedc0960405160405180910390a250565b60008073ffffffffffffffffffffffffffffffffffffffff168273ffffffffffffffffffffffffffffffffffffffff161415610b6057600080fd5b8260000160008373ffffffffffffffffffffffffffffffffffffffff1673ffffffffffffffffffffffffffffffffffffffff16815260200190815260200160002060009054906101000a900460ff16905092915050565b600073ffffffffffffffffffffffffffffffffffffffff168173ffffffffffffffffffffffffffffffffffffffff161415610bf157600080fd5b610bfb8282610b25565b610c0457600080fd5b60008260000160008373ffffffffffffffffffffffffffffffffffffffff1673ffffffffffffffffffffffffffffffffffffffff16815260200190815260200160002060006101000a81548160ff0219169083151502179055505050565b600073ffffffffffffffffffffffffffffffffffffffff168173ffffffffffffffffffffffffffffffffffffffff161415610c9c57600080fd5b610ca68282610b25565b15610cb057600080fd5b60018260000160008373ffffffffffffffffffffffffffffffffffffffff1673ffffffffffffffffffffffffffffffffffffffff16815260200190815260200160002060006101000a81548160ff0219169083151502179055505050565b6040518060600160405280600073ffffffffffffffffffffffffffffffffffffffff16815260200160608152602001606081525090565b828054600181600116156101000203166002900490600052602060002090601f016020900481019282601f10610d7e5780548555610dbb565b82800160010185558215610dbb57600052602060002091601f016020900482015b82811115610dba578254825591600101919060010190610d9f565b5b509050610dc89190610fa3565b5090565b50805460018160011615610100020316600290046000825580601f10610df25750610e11565b601f016020900490600052602060002090810190610e109190610fa3565b5b50565b828054828255906000526020600020906003028101928215610f125760005260206000209160030282015b82811115610f115782826000820160009054906101000a900473ffffffffffffffffffffffffffffffffffffffff168160000160006101000a81548173ffffffffffffffffffffffffffffffffffffffff021916908373ffffffffffffffffffffffffffffffffffffffff16021790555060018201816001019080546001816001161561010002031660029004610ed7929190610d45565b5060028201816002019080546001816001161561010002031660029004610eff929190610d45565b50505091600301919060030190610e3f565b5b509050610f1f9190610fc0565b5090565b828054600181600116156101000203166002900490600052602060002090601f016020900481019282601f10610f6457805160ff1916838001178555610f92565b82800160010185558215610f92579182015b82811115610f91578251825591602001919060010190610f76565b5b509050610f9f9190610fa3565b5090565b5b80821115610fbc576000816000905550600101610fa4565b5090565b5b8082111561101a57600080820160006101000a81549073ffffffffffffffffffffffffffffffffffffffff02191690556001820160006110019190610dcc565b6002820160006110119190610dcc565b50600301610fc1565b509056fe4f6e6c7920535041732063616e20706572666f726d20746869732066756e6374696f6ea26469706673582212205b34c54037801e4957391b3a08df3315294c4d3ee7fa36e3c449e9b0711d859464736f6c63430007000033",
  "immutableReferences": {},
  "source": "// SPDX-License-Identifier: GPL-3.0\npragma solidity ^0.7.0;\n\nimport \"./Roles.sol\";\n\n// Define a contract 'SPARole' to manage this role - add, remove, check\ncontract SPARole {\n    using Roles for Roles.Role;\n\n    // define a struct seedGrower that grows seeds\n    struct seedGrower {\n        address nodeAddress;\n        string sgName;\n        string sgId;\n    }\n\n    mapping(address => seedGrower[]) sgList;\n    mapping(address => seedGrower) sgAccount;\n\n    // Define 2 events, one for Adding, and other for Removing\n  event SPAAdded(address indexed account);\n  event SPARemoved(address indexed account);\n  // Define 2 events, one for Adding, and other for Removing\n  event SGAdded(address indexed account);\n  event SGRemoved(address indexed account);\n\n  // define a struct 'spas' by inheriting it from Roles.Role\n  Roles.Role private spas;\n\n  // define a modifier to be used for adding/removing SGs\n  modifier onlySPA {\n      require(isSPA(msg.sender),\n      \"Only SPAs can perform this function\"\n      );\n      _;\n  }\n\n  // define a function isSPA to check this role\n  function isSPA(address account) public view returns (bool) {\n      return spas.has(account);\n  }\n\n  // define a function addSPA and remove SPA to add/remove roles\n  function addSPA(address account) public {\n      spas.add(account);\n      emit SPAAdded(account);\n  }\n\n  function removeSPA(address account) public {\n      spas.remove(account);\n      emit SPARemoved(account);\n  }\n\n  function addSG(address account, string memory name, string memory id) public onlySPA {\n      seedGrower memory sg = seedGrower(account, name, id);\n      sgList[msg.sender].push(sg);\n      sgAccount[account] = sg;\n\n      emit SGAdded(account);\n  }\n\n  function removeSG(address account) public onlySPA {\n      seedGrower memory sg = sgAccount[account];\n\n      seedGrower[] storage sgArr = sgList[msg.sender];\n      uint i=0;\n      while(i < sgArr.length) {\n          if(sgArr[i].nodeAddress == sg.nodeAddress){\n              break;\n          }\n      }\n      sgArr[i] = sgArr[sgArr.length - 1];\n      sgArr.pop();\n\n      sgList[msg.sender] = sgArr;\n  }\n}",
  "sourcePath": "C:/Users/RIYA/Downloads/IEEE Hack/SeedChain/contracts/roles/SeedProducingAgency.sol",
  "compiler": {
    "name": "solc",
    "version": "0.7.0+commit.9e61f92b.Emscripten.clang"
  },
  "schemaVersion": "3.3.1",
  "updatedAt": "2020-10-30T19:35:52.077Z",
  "devdoc": {
    "kind": "dev",
    "methods": {},
    "version": 1
  },
  "userdoc": {
    "kind": "user",
    "methods": {},
    "version": 1
  }
}