{
  "contractName": "SPPRole",
  "abi": [
    {
      "anonymous": false,
      "inputs": [
        {
          "indexed": true,
          "internalType": "address",
          "name": "account",
          "type": "address"
        }
      ],
      "name": "SPPAdded",
      "type": "event"
    },
    {
      "anonymous": false,
      "inputs": [
        {
          "indexed": true,
          "internalType": "address",
          "name": "account",
          "type": "address"
        }
      ],
      "name": "SPPRemoved",
      "type": "event"
    },
    {
      "inputs": [
        {
          "internalType": "address",
          "name": "account",
          "type": "address"
        }
      ],
      "name": "isSPP",
      "outputs": [
        {
          "internalType": "bool",
          "name": "",
          "type": "bool"
        }
      ],
      "stateMutability": "view",
      "type": "function"
    },
    {
      "inputs": [
        {
          "internalType": "address",
          "name": "account",
          "type": "address"
        }
      ],
      "name": "addSPP",
      "outputs": [],
      "stateMutability": "nonpayable",
      "type": "function"
    },
    {
      "inputs": [
        {
          "internalType": "address",
          "name": "account",
          "type": "address"
        }
      ],
      "name": "removeSPP",
      "outputs": [],
      "stateMutability": "nonpayable",
      "type": "function"
    }
  ],
  "bytecode": "0x608060405234801561001057600080fd5b5061027f806100206000396000f3fe608060405234801561001057600080fd5b506004361061005d577c0100000000000000000000000000000000000000000000000000000000600035046313373da38114610062578063284e31d91461008a578063e5e78b8d146100c4575b600080fd5b6100886004803603602081101561007857600080fd5b5035600160a060020a03166100ea565b005b6100b0600480360360208110156100a057600080fd5b5035600160a060020a031661012c565b604080519115158252519081900360200190f35b610088600480360360208110156100da57600080fd5b5035600160a060020a031661013e565b6100f5600082610180565b604051600160a060020a038216907ff3e988884aa9a6391e1c3130d011c00475cb90ac07d0180dab6d737b0352567f90600090a250565b600061013881836101c8565b92915050565b6101496000826101fd565b604051600160a060020a038216907f47258a1ec64a4dcec3d8dbdd9d375c86c7e1e257caad15305f1cce65392ffce690600090a250565b600160a060020a03811661019357600080fd5b61019d82826101c8565b6101a657600080fd5b600160a060020a0316600090815260209190915260409020805460ff19169055565b6000600160a060020a0382166101dd57600080fd5b50600160a060020a03166000908152602091909152604090205460ff1690565b600160a060020a03811661021057600080fd5b61021a82826101c8565b1561022457600080fd5b600160a060020a0316600090815260209190915260409020805460ff1916600117905556fea2646970667358221220bf65cf6fe9f3b9898c4b6c8713025641f888fa02d712871a88b4db4b8d6129cc64736f6c63430007000033",
  "immutableReferences": {},
  "source": "// SPDX-License-Identifier: GPL-3.0\r\npragma solidity ^0.7.0;\r\n\r\n// Import the library 'Roles'\r\nimport \"./Roles.sol\";\r\n\r\ncontract SPPRole {\r\n  using Roles for Roles.Role;\r\n\r\n  // Define 2 events, one for Adding, and other for Removing\r\n  event SPPAdded(address indexed account);\r\n  event SPPRemoved(address indexed account);\r\n\r\n  Roles.Role private spps;\r\n\r\n  function isSPP(address account) public view returns (bool) {\r\n    return spps.has(account);\r\n  }\r\n\r\n  modifier onlySPP() {\r\n    require(isSPP(msg.sender),\r\n    \"Only SPP can access this function.\");\r\n    _;\r\n  }\r\n\r\n  function addSPP(address account) public {\r\n    spps.add(account);\r\n    emit SPPAdded(account);\r\n  }\r\n\r\n  function removeSPP(address account) public {\r\n    spps.remove(account);\r\n    emit SPPRemoved(account);\r\n  }\r\n}\r\n",
  "sourcePath": "D:\\IEEE Hackathon\\SeedChain\\contracts\\roles\\SeedProcessingPlant.sol",
  "compiler": {
    "name": "solc",
    "version": "0.7.0+commit.9e61f92b.Emscripten.clang"
  },
  "schemaVersion": "3.3.1",
  "updatedAt": "2020-10-31T18:39:53.264Z",
  "devdoc": {
    "kind": "dev",
    "methods": {},
    "version": 1
  },
  "userdoc": {
    "kind": "user",
    "methods": {},
    "version": 1
  }
}