{
  "contractName": "STLRole",
  "abi": [
    {
      "anonymous": false,
      "inputs": [
        {
          "indexed": true,
          "internalType": "address",
          "name": "account",
          "type": "address"
        }
      ],
      "name": "STLAdded",
      "type": "event"
    },
    {
      "anonymous": false,
      "inputs": [
        {
          "indexed": true,
          "internalType": "address",
          "name": "account",
          "type": "address"
        }
      ],
      "name": "STLRemoved",
      "type": "event"
    },
    {
      "inputs": [
        {
          "internalType": "address",
          "name": "account",
          "type": "address"
        }
      ],
      "name": "isSTL",
      "outputs": [
        {
          "internalType": "bool",
          "name": "",
          "type": "bool"
        }
      ],
      "stateMutability": "view",
      "type": "function"
    },
    {
      "inputs": [
        {
          "internalType": "address",
          "name": "account",
          "type": "address"
        }
      ],
      "name": "addSTL",
      "outputs": [],
      "stateMutability": "nonpayable",
      "type": "function"
    },
    {
      "inputs": [
        {
          "internalType": "address",
          "name": "account",
          "type": "address"
        }
      ],
      "name": "removeSTL",
      "outputs": [],
      "stateMutability": "nonpayable",
      "type": "function"
    }
  ],
  "bytecode": "0x608060405234801561001057600080fd5b5061027f806100206000396000f3fe608060405234801561001057600080fd5b506004361061005d577c010000000000000000000000000000000000000000000000000000000060003504630bed3e4a811461006257806394c820e51461009c578063f8f3da23146100c4575b600080fd5b6100886004803603602081101561007857600080fd5b5035600160a060020a03166100ea565b604080519115158252519081900360200190f35b6100c2600480360360208110156100b257600080fd5b5035600160a060020a03166100fc565b005b6100c2600480360360208110156100da57600080fd5b5035600160a060020a031661013e565b60006100f68183610180565b92915050565b6101076000826101b5565b604051600160a060020a038216907f42f5c4eff0dd6fd6af7bc83a3704a6a9bb42469ce3cd39971e20ab2163f74a6090600090a250565b6101496000826101fd565b604051600160a060020a038216907fc0fb512adbd8ae33f70ed367e35e1615f181c690ff76d847c54706603df2e70b90600090a250565b6000600160a060020a03821661019557600080fd5b50600160a060020a03166000908152602091909152604090205460ff1690565b600160a060020a0381166101c857600080fd5b6101d28282610180565b6101db57600080fd5b600160a060020a0316600090815260209190915260409020805460ff19169055565b600160a060020a03811661021057600080fd5b61021a8282610180565b1561022457600080fd5b600160a060020a0316600090815260209190915260409020805460ff1916600117905556fea2646970667358221220ba0052ac38ac71452d8ef2dd19d7913ae71928dec35308817c50bedb8a7f2ba464736f6c63430007000033",
  "immutableReferences": {},
  "source": "// SPDX-License-Identifier: GPL-3.0\r\npragma solidity ^0.7.0;\r\n\r\n// Import the library 'Roles'\r\nimport \"./Roles.sol\";\r\n\r\ncontract STLRole {\r\n  using Roles for Roles.Role;\r\n\r\n  // Define 2 events, one for Adding, and other for Removing\r\n  event STLAdded(address indexed account);\r\n  event STLRemoved(address indexed account);\r\n\r\n  Roles.Role private stls;\r\n\r\n  function isSTL(address account) public view returns (bool) {\r\n    return stls.has(account);\r\n  }\r\n\r\n  modifier onlySTL() {\r\n    require(isSTL(msg.sender),\r\n    \"Only STL can access this function.\");\r\n    _;\r\n  }\r\n\r\n  function addSTL(address account) public {\r\n    stls.add(account);\r\n    emit STLAdded(account);\r\n  }\r\n\r\n  function removeSTL(address account) public {\r\n    stls.remove(account);\r\n    emit STLRemoved(account);\r\n  }\r\n}",
  "sourcePath": "D:\\IEEE Hackathon\\SeedChain\\contracts\\roles\\SeedTestingLab.sol",
  "compiler": {
    "name": "solc",
    "version": "0.7.0+commit.9e61f92b.Emscripten.clang"
  },
  "schemaVersion": "3.3.1",
  "updatedAt": "2020-10-31T18:39:53.303Z",
  "devdoc": {
    "kind": "dev",
    "methods": {},
    "version": 1
  },
  "userdoc": {
    "kind": "user",
    "methods": {},
    "version": 1
  }
}