{
  "contractName": "STLRole",
  "abi": [
    {
      "anonymous": false,
      "inputs": [
        {
          "indexed": true,
          "internalType": "address",
          "name": "account",
          "type": "address"
        }
      ],
      "name": "STLAdded",
      "type": "event"
    },
    {
      "anonymous": false,
      "inputs": [
        {
          "indexed": true,
          "internalType": "address",
          "name": "account",
          "type": "address"
        }
      ],
      "name": "STLRemoved",
      "type": "event"
    },
    {
      "inputs": [
        {
          "internalType": "address",
          "name": "account",
          "type": "address"
        }
      ],
      "name": "isSTL",
      "outputs": [
        {
          "internalType": "bool",
          "name": "",
          "type": "bool"
        }
      ],
      "stateMutability": "view",
      "type": "function"
    },
    {
      "inputs": [
        {
          "internalType": "address",
          "name": "account",
          "type": "address"
        }
      ],
      "name": "addSTL",
      "outputs": [],
      "stateMutability": "nonpayable",
      "type": "function"
    },
    {
      "inputs": [
        {
          "internalType": "address",
          "name": "account",
          "type": "address"
        }
      ],
      "name": "removeSTL",
      "outputs": [],
      "stateMutability": "nonpayable",
      "type": "function"
    }
  ],
  "bytecode": "0x608060405234801561001057600080fd5b50610418806100206000396000f3fe608060405234801561001057600080fd5b50600436106100415760003560e01c80630bed3e4a1461004657806394c820e5146100a0578063f8f3da23146100e4575b600080fd5b6100886004803603602081101561005c57600080fd5b81019080803573ffffffffffffffffffffffffffffffffffffffff169060200190929190505050610128565b60405180821515815260200191505060405180910390f35b6100e2600480360360208110156100b657600080fd5b81019080803573ffffffffffffffffffffffffffffffffffffffff169060200190929190505050610145565b005b610126600480360360208110156100fa57600080fd5b81019080803573ffffffffffffffffffffffffffffffffffffffff16906020019092919050505061019f565b005b600061013e8260006101f990919063ffffffff16565b9050919050565b61015981600061028b90919063ffffffff16565b8073ffffffffffffffffffffffffffffffffffffffff167f42f5c4eff0dd6fd6af7bc83a3704a6a9bb42469ce3cd39971e20ab2163f74a6060405160405180910390a250565b6101b381600061033690919063ffffffff16565b8073ffffffffffffffffffffffffffffffffffffffff167fc0fb512adbd8ae33f70ed367e35e1615f181c690ff76d847c54706603df2e70b60405160405180910390a250565b60008073ffffffffffffffffffffffffffffffffffffffff168273ffffffffffffffffffffffffffffffffffffffff16141561023457600080fd5b8260000160008373ffffffffffffffffffffffffffffffffffffffff1673ffffffffffffffffffffffffffffffffffffffff16815260200190815260200160002060009054906101000a900460ff16905092915050565b600073ffffffffffffffffffffffffffffffffffffffff168173ffffffffffffffffffffffffffffffffffffffff1614156102c557600080fd5b6102cf82826101f9565b6102d857600080fd5b60008260000160008373ffffffffffffffffffffffffffffffffffffffff1673ffffffffffffffffffffffffffffffffffffffff16815260200190815260200160002060006101000a81548160ff0219169083151502179055505050565b600073ffffffffffffffffffffffffffffffffffffffff168173ffffffffffffffffffffffffffffffffffffffff16141561037057600080fd5b61037a82826101f9565b1561038457600080fd5b60018260000160008373ffffffffffffffffffffffffffffffffffffffff1673ffffffffffffffffffffffffffffffffffffffff16815260200190815260200160002060006101000a81548160ff021916908315150217905550505056fea2646970667358221220d4ea04484b5b5064e87306371ebc70196b81998a29272cbae19652565927f9ed64736f6c63430007000033",
  "immutableReferences": {},
  "source": "// SPDX-License-Identifier: GPL-3.0\npragma solidity ^0.7.0;\n\n// Import the library 'Roles'\nimport \"./Roles.sol\";\n\ncontract STLRole {\n  using Roles for Roles.Role;\n\n  // Define 2 events, one for Adding, and other for Removing\n  event STLAdded(address indexed account);\n  event STLRemoved(address indexed account);\n\n  Roles.Role private stls;\n\n  function isSTL(address account) public view returns (bool) {\n    return stls.has(account);\n  }\n\n  modifier onlySTL() {\n    require(isSTL(msg.sender),\n    \"Only STL can access this function.\");\n    _;\n  }\n\n  function addSTL(address account) public {\n    stls.add(account);\n    emit STLAdded(account);\n  }\n\n  function removeSTL(address account) public {\n    stls.remove(account);\n    emit STLRemoved(account);\n  }\n}",
  "sourcePath": "C:/Users/RIYA/Downloads/IEEE Hack/SeedChain/contracts/roles/SeedTestingLab.sol",
  "compiler": {
    "name": "solc",
    "version": "0.7.0+commit.9e61f92b.Emscripten.clang"
  },
  "schemaVersion": "3.3.1",
  "updatedAt": "2020-10-30T19:35:52.104Z",
  "devdoc": {
    "kind": "dev",
    "methods": {},
    "version": 1
  },
  "userdoc": {
    "kind": "user",
    "methods": {},
    "version": 1
  }
}