{
  "contractName": "SupplyChain",
  "abi": [
    {
      "anonymous": false,
      "inputs": [
        {
          "indexed": false,
          "internalType": "uint256",
          "name": "appid",
          "type": "uint256"
        }
      ],
      "name": "ApplicationReceived",
      "type": "event"
    },
    {
      "anonymous": false,
      "inputs": [
        {
          "indexed": false,
          "internalType": "uint256",
          "name": "appid",
          "type": "uint256"
        }
      ],
      "name": "CertificateGranted",
      "type": "event"
    },
    {
      "anonymous": false,
      "inputs": [
        {
          "indexed": false,
          "internalType": "uint256",
          "name": "appid",
          "type": "uint256"
        }
      ],
      "name": "CertificateStageReached",
      "type": "event"
    },
    {
      "anonymous": false,
      "inputs": [
        {
          "indexed": true,
          "internalType": "address",
          "name": "account",
          "type": "address"
        }
      ],
      "name": "FarmerAdded",
      "type": "event"
    },
    {
      "anonymous": false,
      "inputs": [
        {
          "indexed": true,
          "internalType": "address",
          "name": "account",
          "type": "address"
        }
      ],
      "name": "FarmerRemoved",
      "type": "event"
    },
    {
      "anonymous": false,
      "inputs": [
        {
          "indexed": false,
          "internalType": "uint256",
          "name": "appid",
          "type": "uint256"
        }
      ],
      "name": "InspectionStageReached",
      "type": "event"
    },
    {
      "anonymous": false,
      "inputs": [
        {
          "indexed": true,
          "internalType": "address",
          "name": "account",
          "type": "address"
        }
      ],
      "name": "SCAAdded",
      "type": "event"
    },
    {
      "anonymous": false,
      "inputs": [
        {
          "indexed": true,
          "internalType": "address",
          "name": "account",
          "type": "address"
        }
      ],
      "name": "SCARemoved",
      "type": "event"
    },
    {
      "anonymous": false,
      "inputs": [
        {
          "indexed": true,
          "internalType": "address",
          "name": "account",
          "type": "address"
        }
      ],
      "name": "SGAdded",
      "type": "event"
    },
    {
      "anonymous": false,
      "inputs": [
        {
          "indexed": true,
          "internalType": "address",
          "name": "account",
          "type": "address"
        }
      ],
      "name": "SGRemoved",
      "type": "event"
    },
    {
      "anonymous": false,
      "inputs": [
        {
          "indexed": true,
          "internalType": "address",
          "name": "account",
          "type": "address"
        }
      ],
      "name": "SPAAdded",
      "type": "event"
    },
    {
      "anonymous": false,
      "inputs": [
        {
          "indexed": true,
          "internalType": "address",
          "name": "account",
          "type": "address"
        }
      ],
      "name": "SPARemoved",
      "type": "event"
    },
    {
      "anonymous": false,
      "inputs": [
        {
          "indexed": true,
          "internalType": "address",
          "name": "account",
          "type": "address"
        }
      ],
      "name": "SPPAdded",
      "type": "event"
    },
    {
      "anonymous": false,
      "inputs": [
        {
          "indexed": true,
          "internalType": "address",
          "name": "account",
          "type": "address"
        }
      ],
      "name": "SPPRemoved",
      "type": "event"
    },
    {
      "anonymous": false,
      "inputs": [
        {
          "indexed": true,
          "internalType": "address",
          "name": "account",
          "type": "address"
        }
      ],
      "name": "STLAdded",
      "type": "event"
    },
    {
      "anonymous": false,
      "inputs": [
        {
          "indexed": true,
          "internalType": "address",
          "name": "account",
          "type": "address"
        }
      ],
      "name": "STLRemoved",
      "type": "event"
    },
    {
      "anonymous": false,
      "inputs": [
        {
          "indexed": false,
          "internalType": "uint256",
          "name": "appid",
          "type": "uint256"
        }
      ],
      "name": "SampleTestStageReached",
      "type": "event"
    },
    {
      "anonymous": false,
      "inputs": [
        {
          "indexed": false,
          "internalType": "uint256",
          "name": "appid",
          "type": "uint256"
        }
      ],
      "name": "SeedProcessingStageReached",
      "type": "event"
    },
    {
      "anonymous": false,
      "inputs": [
        {
          "indexed": false,
          "internalType": "uint256",
          "name": "appid",
          "type": "uint256"
        }
      ],
      "name": "VerificationStageReached",
      "type": "event"
    },
    {
      "anonymous": false,
      "inputs": [
        {
          "indexed": false,
          "internalType": "uint256",
          "name": "appid",
          "type": "uint256"
        }
      ],
      "name": "WaitingToAssignSPP",
      "type": "event"
    },
    {
      "inputs": [
        {
          "internalType": "address",
          "name": "account",
          "type": "address"
        }
      ],
      "name": "addFarmer",
      "outputs": [],
      "stateMutability": "nonpayable",
      "type": "function"
    },
    {
      "inputs": [
        {
          "internalType": "address",
          "name": "account",
          "type": "address"
        }
      ],
      "name": "addSCA",
      "outputs": [],
      "stateMutability": "nonpayable",
      "type": "function"
    },
    {
      "inputs": [
        {
          "internalType": "address",
          "name": "account",
          "type": "address"
        },
        {
          "internalType": "string",
          "name": "name",
          "type": "string"
        },
        {
          "internalType": "string",
          "name": "id",
          "type": "string"
        }
      ],
      "name": "addSG",
      "outputs": [],
      "stateMutability": "nonpayable",
      "type": "function"
    },
    {
      "inputs": [
        {
          "internalType": "address",
          "name": "account",
          "type": "address"
        }
      ],
      "name": "addSPA",
      "outputs": [],
      "stateMutability": "nonpayable",
      "type": "function"
    },
    {
      "inputs": [
        {
          "internalType": "address",
          "name": "account",
          "type": "address"
        }
      ],
      "name": "addSPP",
      "outputs": [],
      "stateMutability": "nonpayable",
      "type": "function"
    },
    {
      "inputs": [
        {
          "internalType": "address",
          "name": "account",
          "type": "address"
        }
      ],
      "name": "addSTL",
      "outputs": [],
      "stateMutability": "nonpayable",
      "type": "function"
    },
    {
      "inputs": [
        {
          "internalType": "address",
          "name": "account",
          "type": "address"
        }
      ],
      "name": "isFarmer",
      "outputs": [
        {
          "internalType": "bool",
          "name": "",
          "type": "bool"
        }
      ],
      "stateMutability": "view",
      "type": "function"
    },
    {
      "inputs": [
        {
          "internalType": "address",
          "name": "account",
          "type": "address"
        }
      ],
      "name": "isSCA",
      "outputs": [
        {
          "internalType": "bool",
          "name": "",
          "type": "bool"
        }
      ],
      "stateMutability": "view",
      "type": "function"
    },
    {
      "inputs": [
        {
          "internalType": "address",
          "name": "account",
          "type": "address"
        }
      ],
      "name": "isSPA",
      "outputs": [
        {
          "internalType": "bool",
          "name": "",
          "type": "bool"
        }
      ],
      "stateMutability": "view",
      "type": "function"
    },
    {
      "inputs": [
        {
          "internalType": "address",
          "name": "account",
          "type": "address"
        }
      ],
      "name": "isSPP",
      "outputs": [
        {
          "internalType": "bool",
          "name": "",
          "type": "bool"
        }
      ],
      "stateMutability": "view",
      "type": "function"
    },
    {
      "inputs": [
        {
          "internalType": "address",
          "name": "account",
          "type": "address"
        }
      ],
      "name": "isSTL",
      "outputs": [
        {
          "internalType": "bool",
          "name": "",
          "type": "bool"
        }
      ],
      "stateMutability": "view",
      "type": "function"
    },
    {
      "inputs": [
        {
          "internalType": "address",
          "name": "account",
          "type": "address"
        }
      ],
      "name": "removeFarmer",
      "outputs": [],
      "stateMutability": "nonpayable",
      "type": "function"
    },
    {
      "inputs": [
        {
          "internalType": "address",
          "name": "account",
          "type": "address"
        }
      ],
      "name": "removeSCA",
      "outputs": [],
      "stateMutability": "nonpayable",
      "type": "function"
    },
    {
      "inputs": [
        {
          "internalType": "address",
          "name": "account",
          "type": "address"
        }
      ],
      "name": "removeSG",
      "outputs": [],
      "stateMutability": "nonpayable",
      "type": "function"
    },
    {
      "inputs": [
        {
          "internalType": "address",
          "name": "account",
          "type": "address"
        }
      ],
      "name": "removeSPA",
      "outputs": [],
      "stateMutability": "nonpayable",
      "type": "function"
    },
    {
      "inputs": [
        {
          "internalType": "address",
          "name": "account",
          "type": "address"
        }
      ],
      "name": "removeSPP",
      "outputs": [],
      "stateMutability": "nonpayable",
      "type": "function"
    },
    {
      "inputs": [
        {
          "internalType": "address",
          "name": "account",
          "type": "address"
        }
      ],
      "name": "removeSTL",
      "outputs": [],
      "stateMutability": "nonpayable",
      "type": "function"
    },
    {
      "inputs": [
        {
          "internalType": "uint256",
          "name": "appid",
          "type": "uint256"
        }
      ],
      "name": "generateEmptyApplication",
      "outputs": [],
      "stateMutability": "nonpayable",
      "type": "function"
    },
    {
      "inputs": [
        {
          "internalType": "uint256",
          "name": "appid",
          "type": "uint256"
        },
        {
          "internalType": "string",
          "name": "lotNumber",
          "type": "string"
        },
        {
          "internalType": "string",
          "name": "Spaowner",
          "type": "string"
        },
        {
          "internalType": "string",
          "name": "crop",
          "type": "string"
        },
        {
          "internalType": "string",
          "name": "variety",
          "type": "string"
        },
        {
          "internalType": "string",
          "name": "sourceTagNo",
          "type": "string"
        }
      ],
      "name": "generateApplicationPart1",
      "outputs": [],
      "stateMutability": "nonpayable",
      "type": "function"
    },
    {
      "inputs": [
        {
          "internalType": "uint256",
          "name": "appid",
          "type": "uint256"
        },
        {
          "internalType": "string",
          "name": "sourceClass",
          "type": "string"
        },
        {
          "internalType": "string",
          "name": "destinationClass",
          "type": "string"
        },
        {
          "internalType": "string",
          "name": "sourceQuantity",
          "type": "string"
        },
        {
          "internalType": "uint256",
          "name": "sourceDateOfIssue",
          "type": "uint256"
        },
        {
          "internalType": "string",
          "name": "growerName",
          "type": "string"
        },
        {
          "internalType": "string",
          "name": "spaName",
          "type": "string"
        }
      ],
      "name": "generateApplicationPart2",
      "outputs": [],
      "stateMutability": "nonpayable",
      "type": "function"
    },
    {
      "inputs": [
        {
          "internalType": "uint256",
          "name": "appid",
          "type": "uint256"
        },
        {
          "internalType": "string",
          "name": "sourceStoreHouse",
          "type": "string"
        },
        {
          "internalType": "string",
          "name": "destiStoreHouse",
          "type": "string"
        },
        {
          "internalType": "string",
          "name": "sgId",
          "type": "string"
        },
        {
          "internalType": "string",
          "name": "finYear",
          "type": "string"
        },
        {
          "internalType": "string",
          "name": "season",
          "type": "string"
        },
        {
          "internalType": "uint256",
          "name": "landRecordsKhataNo",
          "type": "uint256"
        },
        {
          "internalType": "uint256",
          "name": "landRecordsPlotNo",
          "type": "uint256"
        },
        {
          "internalType": "string",
          "name": "landRecordsArea",
          "type": "string"
        },
        {
          "internalType": "string",
          "name": "cropRegCode",
          "type": "string"
        }
      ],
      "name": "generateApplicationPart3",
      "outputs": [],
      "stateMutability": "nonpayable",
      "type": "function"
    },
    {
      "inputs": [
        {
          "internalType": "uint256",
          "name": "appid",
          "type": "uint256"
        }
      ],
      "name": "verifySPAData",
      "outputs": [],
      "stateMutability": "nonpayable",
      "type": "function"
    },
    {
      "inputs": [
        {
          "internalType": "uint256",
          "name": "appid",
          "type": "uint256"
        }
      ],
      "name": "inspectData",
      "outputs": [],
      "stateMutability": "nonpayable",
      "type": "function"
    },
    {
      "inputs": [
        {
          "internalType": "uint256",
          "name": "appid",
          "type": "uint256"
        },
        {
          "internalType": "string",
          "name": "sppName",
          "type": "string"
        },
        {
          "internalType": "string",
          "name": "sppId",
          "type": "string"
        }
      ],
      "name": "assignSPP",
      "outputs": [],
      "stateMutability": "nonpayable",
      "type": "function"
    },
    {
      "inputs": [
        {
          "internalType": "uint256",
          "name": "appid",
          "type": "uint256"
        },
        {
          "internalType": "string",
          "name": "totalQuant",
          "type": "string"
        },
        {
          "internalType": "uint256",
          "name": "processingDate",
          "type": "uint256"
        },
        {
          "internalType": "uint256",
          "name": "verificationDate",
          "type": "uint256"
        },
        {
          "internalType": "string",
          "name": "sampleSecreteCode",
          "type": "string"
        }
      ],
      "name": "uploadSeedProcessingResults",
      "outputs": [],
      "stateMutability": "nonpayable",
      "type": "function"
    },
    {
      "inputs": [
        {
          "internalType": "string",
          "name": "sampleSecreteCode",
          "type": "string"
        },
        {
          "internalType": "bool",
          "name": "samplePassed",
          "type": "bool"
        },
        {
          "internalType": "uint256",
          "name": "sampleTestDate",
          "type": "uint256"
        }
      ],
      "name": "uploadSampleTestResults",
      "outputs": [],
      "stateMutability": "nonpayable",
      "type": "function"
    },
    {
      "inputs": [
        {
          "internalType": "uint256",
          "name": "appid",
          "type": "uint256"
        },
        {
          "internalType": "string",
          "name": "certificateNo",
          "type": "string"
        },
        {
          "internalType": "uint256",
          "name": "certificateDate",
          "type": "uint256"
        },
        {
          "internalType": "string",
          "name": "tagSeries",
          "type": "string"
        },
        {
          "internalType": "string",
          "name": "tagRangeFrom",
          "type": "string"
        },
        {
          "internalType": "uint256",
          "name": "tagNumberStart",
          "type": "uint256"
        },
        {
          "internalType": "string",
          "name": "tagRangeTo",
          "type": "string"
        },
        {
          "internalType": "uint256",
          "name": "noOfTags",
          "type": "uint256"
        },
        {
          "internalType": "uint256",
          "name": "certiValidity",
          "type": "uint256"
        }
      ],
      "name": "grantCertificate",
      "outputs": [],
      "stateMutability": "nonpayable",
      "type": "function"
    },
    {
      "inputs": [
        {
          "internalType": "uint256",
          "name": "appid",
          "type": "uint256"
        },
        {
          "internalType": "address",
          "name": "farmer",
          "type": "address"
        },
        {
          "internalType": "uint256",
          "name": "noOfBags",
          "type": "uint256"
        }
      ],
      "name": "sellBagsToFarmer",
      "outputs": [
        {
          "internalType": "string",
          "name": "TagStartFrom",
          "type": "string"
        }
      ],
      "stateMutability": "nonpayable",
      "type": "function"
    }
  ],
  "bytecode": "0x6080604052600a60085534801561001557600080fd5b5061693980620000266000396000f3fe608060405234801561001057600080fd5b50600436106101e1576000357c01000000000000000000000000000000000000000000000000000000009004806380c3f96d11610116578063d50ac69c116100b4578063e63b3b2a1161008e578063e63b3b2a146111c4578063e6bf3fdc146111ea578063e8061f6814611210578063f8f3da23146112e5576101e1565b8063d50ac69c1461115b578063e133806114611178578063e5e78b8d1461119e576101e1565b8063a6841253116100f0578063a684125314611029578063b94290691461104f578063bbb0143914611075578063c6feba221461113e576101e1565b806380c3f96d14610f65578063880cb2bb14610f8b57806394c820e514611003576101e1565b8063472507691161018357806363d9e34e1161015d57806363d9e34e146108c65780636e807e5e14610ab057806371428f6014610bed5780637d2a5d5214610ebe576101e1565b806347250769146102fd5780634bbc0ce8146103235780634cb9c91e14610707576101e1565b80631ba2bbe6116101bf5780631ba2bbe61461026e5780631ece8c6e14610294578063284e31d9146102ba5780633dd62c2b146102e0576101e1565b80630bed3e4a146101e657806313373da3146102205780631753596a14610248575b600080fd5b61020c600480360360208110156101fc57600080fd5b5035600160a060020a031661130b565b604080519115158252519081900360200190f35b6102466004803603602081101561023657600080fd5b5035600160a060020a031661131e565b005b61020c6004803603602081101561025e57600080fd5b5035600160a060020a0316611360565b6102466004803603602081101561028457600080fd5b5035600160a060020a031661136d565b610246600480360360208110156102aa57600080fd5b5035600160a060020a03166113af565b61020c600480360360208110156102d057600080fd5b5035600160a060020a03166116d2565b610246600480360360208110156102f657600080fd5b50356116df565b61020c6004803603602081101561031357600080fd5b5035600160a060020a0316611777565b610246600480360361014081101561033a57600080fd5b8135919081019060408101602082013564010000000081111561035c57600080fd5b82018360208201111561036e57600080fd5b8035906020019184600183028401116401000000008311171561039057600080fd5b91908080601f01602080910402602001604051908101604052809392919081815260200183838082843760009201919091525092959493602081019350359150506401000000008111156103e357600080fd5b8201836020820111156103f557600080fd5b8035906020019184600183028401116401000000008311171561041757600080fd5b91908080601f016020809104026020016040519081016040528093929190818152602001838380828437600092019190915250929594936020810193503591505064010000000081111561046a57600080fd5b82018360208201111561047c57600080fd5b8035906020019184600183028401116401000000008311171561049e57600080fd5b91908080601f01602080910402602001604051908101604052809392919081815260200183838082843760009201919091525092959493602081019350359150506401000000008111156104f157600080fd5b82018360208201111561050357600080fd5b8035906020019184600183028401116401000000008311171561052557600080fd5b91908080601f016020809104026020016040519081016040528093929190818152602001838380828437600092019190915250929594936020810193503591505064010000000081111561057857600080fd5b82018360208201111561058a57600080fd5b803590602001918460018302840111640100000000831117156105ac57600080fd5b91908080601f016020809104026020016040519081016040528093929190818152602001838380828437600092019190915250929584359560208601359591945092506060810191506040013564010000000081111561060b57600080fd5b82018360208201111561061d57600080fd5b8035906020019184600183028401116401000000008311171561063f57600080fd5b91908080601f016020809104026020016040519081016040528093929190818152602001838380828437600092019190915250929594936020810193503591505064010000000081111561069257600080fd5b8201836020820111156106a457600080fd5b803590602001918460018302840111640100000000831117156106c657600080fd5b91908080601f016020809104026020016040519081016040528093929190818152602001838380828437600092019190915250929550611784945050505050565b610246600480360360c081101561071d57600080fd5b8135919081019060408101602082013564010000000081111561073f57600080fd5b82018360208201111561075157600080fd5b8035906020019184600183028401116401000000008311171561077357600080fd5b91939092909160208101903564010000000081111561079157600080fd5b8201836020820111156107a357600080fd5b803590602001918460018302840111640100000000831117156107c557600080fd5b9193909290916020810190356401000000008111156107e357600080fd5b8201836020820111156107f557600080fd5b8035906020019184600183028401116401000000008311171561081757600080fd5b91939092909160208101903564010000000081111561083557600080fd5b82018360208201111561084757600080fd5b8035906020019184600183028401116401000000008311171561086957600080fd5b91939092909160208101903564010000000081111561088757600080fd5b82018360208201111561089957600080fd5b803590602001918460018302840111640100000000831117156108bb57600080fd5b509092509050611d72565b61024660048036036101208110156108dd57600080fd5b813591908101906040810160208201356401000000008111156108ff57600080fd5b82018360208201111561091157600080fd5b8035906020019184600183028401116401000000008311171561093357600080fd5b91908080601f0160208091040260200160405190810160405280939291908181526020018383808284376000920191909152509295843595909490935060408101925060200135905064010000000081111561098e57600080fd5b8201836020820111156109a057600080fd5b803590602001918460018302840111640100000000831117156109c257600080fd5b91908080601f0160208091040260200160405190810160405280939291908181526020018383808284376000920191909152509295949360208101935035915050640100000000811115610a1557600080fd5b820183602082011115610a2757600080fd5b80359060200191846001830284011164010000000083111715610a4957600080fd5b91939092823592604081019060200135640100000000811115610a6b57600080fd5b820183602082011115610a7d57600080fd5b80359060200191846001830284011164010000000083111715610a9f57600080fd5b91935091508035906020013561230a565b61024660048036036060811015610ac657600080fd5b600160a060020a038235169190810190604081016020820135640100000000811115610af157600080fd5b820183602082011115610b0357600080fd5b80359060200191846001830284011164010000000083111715610b2557600080fd5b91908080601f0160208091040260200160405190810160405280939291908181526020018383808284376000920191909152509295949360208101935035915050640100000000811115610b7857600080fd5b820183602082011115610b8a57600080fd5b80359060200191846001830284011164010000000083111715610bac57600080fd5b91908080601f016020809104026020016040519081016040528093929190818152602001838380828437600092019190915250929550612f49945050505050565b610246600480360360e0811015610c0357600080fd5b81359190810190604081016020820135640100000000811115610c2557600080fd5b820183602082011115610c3757600080fd5b80359060200191846001830284011164010000000083111715610c5957600080fd5b91908080601f0160208091040260200160405190810160405280939291908181526020018383808284376000920191909152509295949360208101935035915050640100000000811115610cac57600080fd5b820183602082011115610cbe57600080fd5b80359060200191846001830284011164010000000083111715610ce057600080fd5b91908080601f0160208091040260200160405190810160405280939291908181526020018383808284376000920191909152509295949360208101935035915050640100000000811115610d3357600080fd5b820183602082011115610d4557600080fd5b80359060200191846001830284011164010000000083111715610d6757600080fd5b91908080601f01602080910402602001604051908101604052809392919081815260200183838082843760009201919091525092958435959094909350604081019250602001359050640100000000811115610dc257600080fd5b820183602082011115610dd457600080fd5b80359060200191846001830284011164010000000083111715610df657600080fd5b91908080601f0160208091040260200160405190810160405280939291908181526020018383808284376000920191909152509295949360208101935035915050640100000000811115610e4957600080fd5b820183602082011115610e5b57600080fd5b80359060200191846001830284011164010000000083111715610e7d57600080fd5b91908080601f0160208091040260200160405190810160405280939291908181526020018383808284376000920191909152509295506130d5945050505050565b610ef060048036036060811015610ed457600080fd5b50803590600160a060020a03602082013516906040013561365a565b6040805160208082528351818301528351919283929083019185019080838360005b83811015610f2a578181015183820152602001610f12565b50505050905090810190601f168015610f575780820380516001836020036101000a031916815260200191505b509250505060405180910390f35b61024660048036036020811015610f7b57600080fd5b5035600160a060020a0316614115565b61024660048036036060811015610fa157600080fd5b810190602081018135640100000000811115610fbc57600080fd5b820183602082011115610fce57600080fd5b80359060200191846001830284011164010000000083111715610ff057600080fd5b9193509150803515159060200135614157565b6102466004803603602081101561101957600080fd5b5035600160a060020a0316614ba3565b6102466004803603602081101561103f57600080fd5b5035600160a060020a0316614be5565b61020c6004803603602081101561106557600080fd5b5035600160a060020a0316614c27565b6102466004803603606081101561108b57600080fd5b813591908101906040810160208201356401000000008111156110ad57600080fd5b8201836020820111156110bf57600080fd5b803590602001918460018302840111640100000000831117156110e157600080fd5b9193909290916020810190356401000000008111156110ff57600080fd5b82018360208201111561111157600080fd5b8035906020019184600183028401116401000000008311171561113357600080fd5b509092509050614c33565b6102466004803603602081101561115457600080fd5b50356151a4565b6102466004803603602081101561117157600080fd5b5035615613565b6102466004803603602081101561118e57600080fd5b5035600160a060020a03166156ab565b610246600480360360208110156111b457600080fd5b5035600160a060020a03166156ed565b610246600480360360208110156111da57600080fd5b5035600160a060020a031661572f565b6102466004803603602081101561120057600080fd5b5035600160a060020a0316615771565b610246600480360360a081101561122657600080fd5b8135919081019060408101602082013564010000000081111561124857600080fd5b82018360208201111561125a57600080fd5b8035906020019184600183028401116401000000008311171561127c57600080fd5b9193909282359260208101359291906060810190604001356401000000008111156112a657600080fd5b8201836020820111156112b857600080fd5b803590602001918460018302840111640100000000831117156112da57600080fd5b5090925090506157b3565b610246600480360360208110156112fb57600080fd5b5035600160a060020a03166161fa565b600061131860068361623c565b92915050565b611329600582616271565b604051600160a060020a038216907ff3e988884aa9a6391e1c3130d011c00475cb90ac07d0180dab6d737b0352567f90600090a250565b600061131860048361623c565b611378600482616271565b604051600160a060020a038216907f3b69f2ed1fffc4ad7adb52b8b88069c16f9dd89f66c0f6d0ffbb92290bc9c3e890600090a250565b6113b833611360565b6113f65760405160e560020a62461bcd0281526004018080602001828103825260238152602001806168e16023913960400191505060405180910390fd5b6113fe616305565b600160a060020a03828116600090815260036020908152604091829020825160608101845281549094168452600180820180548551600261010094831615949094026000190190911692909204601f81018590048502830185019095528482529193858401939192918301828280156114b85780601f1061148d576101008083540402835291602001916114b8565b820191906000526020600020905b81548152906001019060200180831161149b57829003601f168201915b5050509183525050600282810180546040805160206001841615610100026000190190931694909404601f8101839004830285018301909152808452938101939083018282801561154a5780601f1061151f5761010080835404028352916020019161154a565b820191906000526020600020905b81548152906001019060200180831161152d57829003601f168201915b50505091909252505033600090815260026020526040812092935090505b81548110156115b5578260000151600160a060020a031682828154811061158b57fe5b6000918252602090912060039091020154600160a060020a031614156115b0576115b5565b611568565b8154829060001981019081106115c757fe5b90600052602060002090600302018282815481106115e157fe5b6000918252602090912082546003909202018054600160a060020a031916600160a060020a03909216919091178155600180830180546116389280850192916002600019928216156101000292909201160461632f565b506002828101805461165d92848101929160001961010060018316150201160461632f565b509050508180548061166b57fe5b6000828152602081206003600019909301928302018054600160a060020a03191681559061169c60018301826163b4565b6116aa6002830160006163b4565b5050905533600090815260026020526040902082546116cb919084906163fb565b5050505050565b600061131860058361623c565b6116e833611777565b6117265760405160e560020a62461bcd02815260040180806020018281038252602381526020018061689c6023913960400191505060405180910390fd5b600081815260096020908152604091829020805460ff19166002179055815183815291517f783b1f1a27c50420053854acdd5a68979aa1e53156522f027f3eb7e35205aad19281900390910190a150565b600061131860018361623c565b61178d33611360565b6117cb5760405160e560020a62461bcd0281526004018080602001828103825260238152602001806168e16023913960400191505060405180910390fd5b60008a8152600a602090815260409091208a5190916117f191600c8401918d01906164ba565b50885161180790600d83019060208c01906164ba565b50875161181d90600e83019060208b01906164ba565b50865161183390600f83019060208a01906164ba565b50855161184990601083019060208901906164ba565b506011810185905560128101849055825161186d90601383019060208601906164ba565b50815161188390601483019060208501906164ba565b5080600a60008d815260200190815260200160002060008201548160000155600182018160010190805460018160011615610100020316600290046118c992919061632f565b50600282810180546118ee92848101929160001961010060018316150201160461632f565b506003820181600301908054600181600116156101000203166002900461191692919061632f565b506004820181600401908054600181600116156101000203166002900461193e92919061632f565b506005820181600501908054600181600116156101000203166002900461196692919061632f565b506006820181600601908054600181600116156101000203166002900461198e92919061632f565b50600782018160070190805460018160011615610100020316600290046119b692919061632f565b50600882018160080190805460018160011615610100020316600290046119de92919061632f565b5060098201548160090155600a820181600a019080546001816001161561010002031660029004611a1092919061632f565b50600b820181600b019080546001816001161561010002031660029004611a3892919061632f565b50600c820181600c019080546001816001161561010002031660029004611a6092919061632f565b50600d820181600d019080546001816001161561010002031660029004611a8892919061632f565b50600e820181600e019080546001816001161561010002031660029004611ab092919061632f565b50600f820181600f019080546001816001161561010002031660029004611ad892919061632f565b5060108201816010019080546001816001161561010002031660029004611b0092919061632f565b50601182015481601101556012820154816012015560138201816013019080546001816001161561010002031660029004611b3c92919061632f565b5060148201816014019080546001816001161561010002031660029004611b6492919061632f565b5060158201816015019080546001816001161561010002031660029004611b8c92919061632f565b5060168201816016019080546001816001161561010002031660029004611bb492919061632f565b5060178201816017019080546001816001161561010002031660029004611bdc92919061632f565b506018820154816018015560198201548160190155601a820181601a019080546001816001161561010002031660029004611c1892919061632f565b50601b82810154908201805460ff191660ff9092161515919091179055601c8083015490820155601d8083018054611c6692840191906002610100600183161502600019019091160461632f565b50601e82015481601e0155601f820181601f019080546001816001161561010002031660029004611c9892919061632f565b5060208201816020019080546001816001161561010002031660029004611cc092919061632f565b5060218201816021019080546001816001161561010002031660029004611ce892919061632f565b5060228281018054611cfd9284019190616528565b5060238201548160230155602482015481602401556025820181602501908054611d28929190616592565b50602691820154910155604080518c815290517f63347dd654bad8213781a534e1e358647ab3560937318173a217553d5153db579181900360200190a15050505050505050505050565b611d7b33611360565b611db95760405160e560020a62461bcd0281526004018080602001828103825260238152602001806168e16023913960400191505060405180910390fd5b6007805460018082019092557fa66cc928b5edb82af9bd49922954155ab7b0942694bea4ce44661d9a8736c688018c905560008c8152600960205260408120805460ff1916831790558c815590611e11908c8c6165de565b50611e20600282018a8a6165de565b50611e2f6003820188886165de565b50611e3e6004820186866165de565b50611e4d6005820184846165de565b5080600a60008e81526020019081526020016000206000820154816000015560018201816001019080546001816001161561010002031660029004611e9392919061632f565b5060028281018054611eb892848101929160001961010060018316150201160461632f565b5060038201816003019080546001816001161561010002031660029004611ee092919061632f565b5060048201816004019080546001816001161561010002031660029004611f0892919061632f565b5060058201816005019080546001816001161561010002031660029004611f3092919061632f565b5060068201816006019080546001816001161561010002031660029004611f5892919061632f565b5060078201816007019080546001816001161561010002031660029004611f8092919061632f565b5060088201816008019080546001816001161561010002031660029004611fa892919061632f565b5060098201548160090155600a820181600a019080546001816001161561010002031660029004611fda92919061632f565b50600b820181600b01908054600181600116156101000203166002900461200292919061632f565b50600c820181600c01908054600181600116156101000203166002900461202a92919061632f565b50600d820181600d01908054600181600116156101000203166002900461205292919061632f565b50600e820181600e01908054600181600116156101000203166002900461207a92919061632f565b50600f820181600f0190805460018160011615610100020316600290046120a292919061632f565b50601082018160100190805460018160011615610100020316600290046120ca92919061632f565b5060118201548160110155601282015481601201556013820181601301908054600181600116156101000203166002900461210692919061632f565b506014820181601401908054600181600116156101000203166002900461212e92919061632f565b506015820181601501908054600181600116156101000203166002900461215692919061632f565b506016820181601601908054600181600116156101000203166002900461217e92919061632f565b50601782018160170190805460018160011615610100020316600290046121a692919061632f565b506018820154816018015560198201548160190155601a820181601a0190805460018160011615610100020316600290046121e292919061632f565b50601b82810154908201805460ff191660ff9092161515919091179055601c8083015490820155601d808301805461223092840191906002610100600183161502600019019091160461632f565b50601e82015481601e0155601f820181601f01908054600181600116156101000203166002900461226292919061632f565b506020820181602001908054600181600116156101000203166002900461228a92919061632f565b50602182018160210190805460018160011615610100020316600290046122b292919061632f565b50602282810180546122c79284019190616528565b50602382015481602301556024820154816024015560258201816025019080546122f2929190616592565b50602691820154910155505050505050505050505050565b61231333611777565b6123515760405160e560020a62461bcd02815260040180806020018281038252602381526020018061689c6023913960400191505060405180910390fd5b60008b8152600960209081526040808320805460ff19166007179055600a82529091208b51909161238991601d8401918e01906164ba565b50601e81018a905588516123a690601f83019060208c01906164ba565b506123b56020820189896165de565b506123c46021820186866165de565b5060238101839055602481018290556000198601602682015560005b838110156124b45760608a8289016040516020018083805190602001908083835b602083106124205780518252601f199092019160209182019101612401565b51815160209384036101000a60001901801990921691161790527f2d00000000000000000000000000000000000000000000000000000000000000919093019081526001808201959095526040805180830387018152602190920190526022890180549586018155600090815283902081519197506124aa96509094019391860192506164ba9050565b50506001016123e0565b5080600a60008e815260200190815260200160002060008201548160000155600182018160010190805460018160011615610100020316600290046124fa92919061632f565b506002828101805461251f92848101929160001961010060018316150201160461632f565b506003820181600301908054600181600116156101000203166002900461254792919061632f565b506004820181600401908054600181600116156101000203166002900461256f92919061632f565b506005820181600501908054600181600116156101000203166002900461259792919061632f565b50600682018160060190805460018160011615610100020316600290046125bf92919061632f565b50600782018160070190805460018160011615610100020316600290046125e792919061632f565b506008820181600801908054600181600116156101000203166002900461260f92919061632f565b5060098201548160090155600a820181600a01908054600181600116156101000203166002900461264192919061632f565b50600b820181600b01908054600181600116156101000203166002900461266992919061632f565b50600c820181600c01908054600181600116156101000203166002900461269192919061632f565b50600d820181600d0190805460018160011615610100020316600290046126b992919061632f565b50600e820181600e0190805460018160011615610100020316600290046126e192919061632f565b50600f820181600f01908054600181600116156101000203166002900461270992919061632f565b506010820181601001908054600181600116156101000203166002900461273192919061632f565b5060118201548160110155601282015481601201556013820181601301908054600181600116156101000203166002900461276d92919061632f565b506014820181601401908054600181600116156101000203166002900461279592919061632f565b50601582018160150190805460018160011615610100020316600290046127bd92919061632f565b50601682018160160190805460018160011615610100020316600290046127e592919061632f565b506017820181601701908054600181600116156101000203166002900461280d92919061632f565b506018820154816018015560198201548160190155601a820181601a01908054600181600116156101000203166002900461284992919061632f565b50601b82810154908201805460ff191660ff9092161515919091179055601c8083015490820155601d808301805461289792840191906002610100600183161502600019019091160461632f565b50601e82015481601e0155601f820181601f0190805460018160011615610100020316600290046128c992919061632f565b50602082018160200190805460018160011615610100020316600290046128f192919061632f565b506021820181602101908054600181600116156101000203166002900461291992919061632f565b506022828101805461292e9284019190616528565b5060238201548160230155602482015481602401556025820181602501908054612959929190616592565b506026820154816026015590505080600b82601a0160405180828054600181600116156101000203166002900480156129c95780601f106129a75761010080835404028352918201916129c9565b820191906000526020600020905b8154815290600101906020018083116129b5575b505091505090815260200160405180910390206000820154816000015560018201816001019080546001816001161561010002031660029004612a0d92919061632f565b5060028281018054612a3292848101929160001961010060018316150201160461632f565b5060038201816003019080546001816001161561010002031660029004612a5a92919061632f565b5060048201816004019080546001816001161561010002031660029004612a8292919061632f565b5060058201816005019080546001816001161561010002031660029004612aaa92919061632f565b5060068201816006019080546001816001161561010002031660029004612ad292919061632f565b5060078201816007019080546001816001161561010002031660029004612afa92919061632f565b5060088201816008019080546001816001161561010002031660029004612b2292919061632f565b5060098201548160090155600a820181600a019080546001816001161561010002031660029004612b5492919061632f565b50600b820181600b019080546001816001161561010002031660029004612b7c92919061632f565b50600c820181600c019080546001816001161561010002031660029004612ba492919061632f565b50600d820181600d019080546001816001161561010002031660029004612bcc92919061632f565b50600e820181600e019080546001816001161561010002031660029004612bf492919061632f565b50600f820181600f019080546001816001161561010002031660029004612c1c92919061632f565b5060108201816010019080546001816001161561010002031660029004612c4492919061632f565b50601182015481601101556012820154816012015560138201816013019080546001816001161561010002031660029004612c8092919061632f565b5060148201816014019080546001816001161561010002031660029004612ca892919061632f565b5060158201816015019080546001816001161561010002031660029004612cd092919061632f565b5060168201816016019080546001816001161561010002031660029004612cf892919061632f565b5060178201816017019080546001816001161561010002031660029004612d2092919061632f565b506018820154816018015560198201548160190155601a820181601a019080546001816001161561010002031660029004612d5c92919061632f565b50601b82810154908201805460ff191660ff9092161515919091179055601c8083015490820155601d8083018054612daa92840191906002610100600183161502600019019091160461632f565b50601e82015481601e0155601f820181601f019080546001816001161561010002031660029004612ddc92919061632f565b5060208201816020019080546001816001161561010002031660029004612e0492919061632f565b5060218201816021019080546001816001161561010002031660029004612e2c92919061632f565b5060228281018054612e419284019190616528565b5060238201548160230155602482015481602401556025820181602501908054612e6c929190616592565b5060269182015491015560005b600754811015612eac578c60078281548110612e9157fe5b90600052602060002001541415612ea757612eac565b612e79565b600780546000198101908110612ebe57fe5b906000526020600020015460078281548110612ed657fe5b6000918252602090912001556007805480612eed57fe5b600190038181906000526020600020016000905590557f4a8b0711947a392338e311527e79ffb0056022362be3463a2c242ce4a41d047c8d6040518082815260200191505060405180910390a150505050505050505050505050565b612f5233611360565b612f905760405160e560020a62461bcd0281526004018080602001828103825260238152602001806168e16023913960400191505060405180910390fd5b612f98616305565b5060408051606081018252600160a060020a0385811682526020808301868152838501869052336000908152600283529485208054600180820183559187529583902085516003909702018054600160a060020a03191696909416959095178355518051939485946130119391850192909101906164ba565b506040820151805161302d9160028401916020909101906164ba565b505050600160a060020a03848116600090815260036020908152604090912083518154600160a060020a031916931692909217825582810151805184939261307c9260018501929101906164ba565b50604082015180516130989160028401916020909101906164ba565b5050604051600160a060020a03861691507fcb1507dcdf2d9fc501838213cec41003537ac312869deb71283d076fab00892c90600090a250505050565b6130de33611360565b61311c5760405160e560020a62461bcd0281526004018080602001828103825260238152602001806168e16023913960400191505060405180910390fd5b6000878152600a60209081526040909120875190916131429160068401918a01906164ba565b50855161315890600783019060208901906164ba565b50845161316e90600883019060208801906164ba565b5060098101849055825161318b90600a83019060208601906164ba565b5081516131a190600b83019060208501906164ba565b5080600a60008a815260200190815260200160002060008201548160000155600182018160010190805460018160011615610100020316600290046131e792919061632f565b506002828101805461320c92848101929160001961010060018316150201160461632f565b506003820181600301908054600181600116156101000203166002900461323492919061632f565b506004820181600401908054600181600116156101000203166002900461325c92919061632f565b506005820181600501908054600181600116156101000203166002900461328492919061632f565b50600682018160060190805460018160011615610100020316600290046132ac92919061632f565b50600782018160070190805460018160011615610100020316600290046132d492919061632f565b50600882018160080190805460018160011615610100020316600290046132fc92919061632f565b5060098201548160090155600a820181600a01908054600181600116156101000203166002900461332e92919061632f565b50600b820181600b01908054600181600116156101000203166002900461335692919061632f565b50600c820181600c01908054600181600116156101000203166002900461337e92919061632f565b50600d820181600d0190805460018160011615610100020316600290046133a692919061632f565b50600e820181600e0190805460018160011615610100020316600290046133ce92919061632f565b50600f820181600f0190805460018160011615610100020316600290046133f692919061632f565b506010820181601001908054600181600116156101000203166002900461341e92919061632f565b5060118201548160110155601282015481601201556013820181601301908054600181600116156101000203166002900461345a92919061632f565b506014820181601401908054600181600116156101000203166002900461348292919061632f565b50601582018160150190805460018160011615610100020316600290046134aa92919061632f565b50601682018160160190805460018160011615610100020316600290046134d292919061632f565b50601782018160170190805460018160011615610100020316600290046134fa92919061632f565b506018820154816018015560198201548160190155601a820181601a01908054600181600116156101000203166002900461353692919061632f565b50601b82810154908201805460ff191660ff9092161515919091179055601c8083015490820155601d808301805461358492840191906002610100600183161502600019019091160461632f565b50601e82015481601e0155601f820181601f0190805460018160011615610100020316600290046135b692919061632f565b50602082018160200190805460018160011615610100020316600290046135de92919061632f565b506021820181602101908054600181600116156101000203166002900461360692919061632f565b506022828101805461361b9284019190616528565b5060238201548160230155602482015481602401556025820181602501908054613646929190616592565b506026918201549101555050505050505050565b60606000600a6000868152602001908152602001600020905080601f01816026015460010160405160200180838054600181600116156101000203166002900480156136dd5780601f106136bb5761010080835404028352918201916136dd565b820191906000526020600020905b8154815290600101906020018083116136c9575b50507f2d000000000000000000000000000000000000000000000000000000000000008152600180820193909352604080518083038501815260219092018152602686018054890190556025860180548086018255600091825260208083209091018054600160a060020a038d16600160a060020a03199091161790558b8252600a90522085548155858401805492975086955090936137919350848101926002918116156101000260001901160461632f565b50600282810180546137b692848101929160001961010060018316150201160461632f565b50600382018160030190805460018160011615610100020316600290046137de92919061632f565b506004820181600401908054600181600116156101000203166002900461380692919061632f565b506005820181600501908054600181600116156101000203166002900461382e92919061632f565b506006820181600601908054600181600116156101000203166002900461385692919061632f565b506007820181600701908054600181600116156101000203166002900461387e92919061632f565b50600882018160080190805460018160011615610100020316600290046138a692919061632f565b5060098201548160090155600a820181600a0190805460018160011615610100020316600290046138d892919061632f565b50600b820181600b01908054600181600116156101000203166002900461390092919061632f565b50600c820181600c01908054600181600116156101000203166002900461392892919061632f565b50600d820181600d01908054600181600116156101000203166002900461395092919061632f565b50600e820181600e01908054600181600116156101000203166002900461397892919061632f565b50600f820181600f0190805460018160011615610100020316600290046139a092919061632f565b50601082018160100190805460018160011615610100020316600290046139c892919061632f565b50601182015481601101556012820154816012015560138201816013019080546001816001161561010002031660029004613a0492919061632f565b5060148201816014019080546001816001161561010002031660029004613a2c92919061632f565b5060158201816015019080546001816001161561010002031660029004613a5492919061632f565b5060168201816016019080546001816001161561010002031660029004613a7c92919061632f565b5060178201816017019080546001816001161561010002031660029004613aa492919061632f565b506018820154816018015560198201548160190155601a820181601a019080546001816001161561010002031660029004613ae092919061632f565b50601b82810154908201805460ff191660ff9092161515919091179055601c8083015490820155601d8083018054613b2e92840191906002610100600183161502600019019091160461632f565b50601e82015481601e0155601f820181601f019080546001816001161561010002031660029004613b6092919061632f565b5060208201816020019080546001816001161561010002031660029004613b8892919061632f565b5060218201816021019080546001816001161561010002031660029004613bb092919061632f565b5060228281018054613bc59284019190616528565b5060238201548160230155602482015481602401556025820181602501908054613bf0929190616592565b506026820154816026015590505080600b82601a016040518082805460018160011615610100020316600290048015613c605780601f10613c3e576101008083540402835291820191613c60565b820191906000526020600020905b815481529060010190602001808311613c4c575b505091505090815260200160405180910390206000820154816000015560018201816001019080546001816001161561010002031660029004613ca492919061632f565b5060028281018054613cc992848101929160001961010060018316150201160461632f565b5060038201816003019080546001816001161561010002031660029004613cf192919061632f565b5060048201816004019080546001816001161561010002031660029004613d1992919061632f565b5060058201816005019080546001816001161561010002031660029004613d4192919061632f565b5060068201816006019080546001816001161561010002031660029004613d6992919061632f565b5060078201816007019080546001816001161561010002031660029004613d9192919061632f565b5060088201816008019080546001816001161561010002031660029004613db992919061632f565b5060098201548160090155600a820181600a019080546001816001161561010002031660029004613deb92919061632f565b50600b820181600b019080546001816001161561010002031660029004613e1392919061632f565b50600c820181600c019080546001816001161561010002031660029004613e3b92919061632f565b50600d820181600d019080546001816001161561010002031660029004613e6392919061632f565b50600e820181600e019080546001816001161561010002031660029004613e8b92919061632f565b50600f820181600f019080546001816001161561010002031660029004613eb392919061632f565b5060108201816010019080546001816001161561010002031660029004613edb92919061632f565b50601182015481601101556012820154816012015560138201816013019080546001816001161561010002031660029004613f1792919061632f565b5060148201816014019080546001816001161561010002031660029004613f3f92919061632f565b5060158201816015019080546001816001161561010002031660029004613f6792919061632f565b5060168201816016019080546001816001161561010002031660029004613f8f92919061632f565b5060178201816017019080546001816001161561010002031660029004613fb792919061632f565b506018820154816018015560198201548160190155601a820181601a019080546001816001161561010002031660029004613ff392919061632f565b50601b82810154908201805460ff191660ff9092161515919091179055601c8083015490820155601d808301805461404192840191906002610100600183161502600019019091160461632f565b50601e82015481601e0155601f820181601f01908054600181600116156101000203166002900461407392919061632f565b506020820181602001908054600181600116156101000203166002900461409b92919061632f565b50602182018160210190805460018160011615610100020316600290046140c392919061632f565b50602282810180546140d89284019190616528565b5060238201548160230155602482015481602401556025820181602501908054614103929190616592565b50602691820154910155509392505050565b6141206000826162b9565b604051600160a060020a038216907f2e0ded4123377a3c2bc9a26f1717655a129e2f20752924d42e730ec89c83dbd090600090a250565b6141603361130b565b61419e5760405160e560020a62461bcd0281526004018080602001828103825260228152602001806168bf6022913960400191505060405180910390fd5b6000600b8585604051808383808284379190910194855250506040805160209481900385018120805460008181526009909752929095208054600660ff1991821617909155601b86018054909116891515179055601c850187905593945092849250600b9150889088908083838082843780830192505050925050509081526020016040518091039020600082015481600001556001820181600101908054600181600116156101000203166002900461425992919061632f565b506002828101805461427e92848101929160001961010060018316150201160461632f565b50600382018160030190805460018160011615610100020316600290046142a692919061632f565b50600482018160040190805460018160011615610100020316600290046142ce92919061632f565b50600582018160050190805460018160011615610100020316600290046142f692919061632f565b506006820181600601908054600181600116156101000203166002900461431e92919061632f565b506007820181600701908054600181600116156101000203166002900461434692919061632f565b506008820181600801908054600181600116156101000203166002900461436e92919061632f565b5060098201548160090155600a820181600a0190805460018160011615610100020316600290046143a092919061632f565b50600b820181600b0190805460018160011615610100020316600290046143c892919061632f565b50600c820181600c0190805460018160011615610100020316600290046143f092919061632f565b50600d820181600d01908054600181600116156101000203166002900461441892919061632f565b50600e820181600e01908054600181600116156101000203166002900461444092919061632f565b50600f820181600f01908054600181600116156101000203166002900461446892919061632f565b506010820181601001908054600181600116156101000203166002900461449092919061632f565b506011820154816011015560128201548160120155601382018160130190805460018160011615610100020316600290046144cc92919061632f565b50601482018160140190805460018160011615610100020316600290046144f492919061632f565b506015820181601501908054600181600116156101000203166002900461451c92919061632f565b506016820181601601908054600181600116156101000203166002900461454492919061632f565b506017820181601701908054600181600116156101000203166002900461456c92919061632f565b506018820154816018015560198201548160190155601a820181601a0190805460018160011615610100020316600290046145a892919061632f565b50601b82810154908201805460ff191660ff9092161515919091179055601c8083015490820155601d80830180546145f692840191906002610100600183161502600019019091160461632f565b50601e82015481601e0155601f820181601f01908054600181600116156101000203166002900461462892919061632f565b506020820181602001908054600181600116156101000203166002900461465092919061632f565b506021820181602101908054600181600116156101000203166002900461467892919061632f565b506022828101805461468d9284019190616528565b50602382015481602301556024820154816024015560258201816025019080546146b8929190616592565b506026918201549101556000818152600a6020526040902082548155600180840180548593926146ff9281850192909160029082161561010002600019019091160461632f565b506002828101805461472492848101929160001961010060018316150201160461632f565b506003820181600301908054600181600116156101000203166002900461474c92919061632f565b506004820181600401908054600181600116156101000203166002900461477492919061632f565b506005820181600501908054600181600116156101000203166002900461479c92919061632f565b50600682018160060190805460018160011615610100020316600290046147c492919061632f565b50600782018160070190805460018160011615610100020316600290046147ec92919061632f565b506008820181600801908054600181600116156101000203166002900461481492919061632f565b5060098201548160090155600a820181600a01908054600181600116156101000203166002900461484692919061632f565b50600b820181600b01908054600181600116156101000203166002900461486e92919061632f565b50600c820181600c01908054600181600116156101000203166002900461489692919061632f565b50600d820181600d0190805460018160011615610100020316600290046148be92919061632f565b50600e820181600e0190805460018160011615610100020316600290046148e692919061632f565b50600f820181600f01908054600181600116156101000203166002900461490e92919061632f565b506010820181601001908054600181600116156101000203166002900461493692919061632f565b5060118201548160110155601282015481601201556013820181601301908054600181600116156101000203166002900461497292919061632f565b506014820181601401908054600181600116156101000203166002900461499a92919061632f565b50601582018160150190805460018160011615610100020316600290046149c292919061632f565b50601682018160160190805460018160011615610100020316600290046149ea92919061632f565b5060178201816017019080546001816001161561010002031660029004614a1292919061632f565b506018820154816018015560198201548160190155601a820181601a019080546001816001161561010002031660029004614a4e92919061632f565b50601b82810154908201805460ff191660ff9092161515919091179055601c8083015490820155601d8083018054614a9c92840191906002610100600183161502600019019091160461632f565b50601e82015481601e0155601f820181601f019080546001816001161561010002031660029004614ace92919061632f565b5060208201816020019080546001816001161561010002031660029004614af692919061632f565b5060218201816021019080546001816001161561010002031660029004614b1e92919061632f565b5060228281018054614b339284019190616528565b5060238201548160230155602482015481602401556025820181602501908054614b5e929190616592565b506026918201549101556040805182815290517fe99954250a33a08c5a1e63f145193aa2dea5f976f3811c1fdb6e10d48bcb905e9181900360200190a1505050505050565b614bae600682616271565b604051600160a060020a038216907f42f5c4eff0dd6fd6af7bc83a3704a6a9bb42469ce3cd39971e20ab2163f74a6090600090a250565b614bf06001826162b9565b604051600160a060020a038216907feba1cd1854e190f6665145353b915ff069af7906d1d7f706a872e7fede84517390600090a250565b6000611318818361623c565b614c3c33611360565b614c7a5760405160e560020a62461bcd0281526004018080602001828103825260238152602001806168e16023913960400191505060405180910390fd5b6000858152600960209081526040808320805460ff19166004179055600a9091529020614cab6015820186866165de565b50614cba6016820184846165de565b5080600a60008881526020019081526020016000206000820154816000015560018201816001019080546001816001161561010002031660029004614d0092919061632f565b5060028281018054614d2592848101929160001961010060018316150201160461632f565b5060038201816003019080546001816001161561010002031660029004614d4d92919061632f565b5060048201816004019080546001816001161561010002031660029004614d7592919061632f565b5060058201816005019080546001816001161561010002031660029004614d9d92919061632f565b5060068201816006019080546001816001161561010002031660029004614dc592919061632f565b5060078201816007019080546001816001161561010002031660029004614ded92919061632f565b5060088201816008019080546001816001161561010002031660029004614e1592919061632f565b5060098201548160090155600a820181600a019080546001816001161561010002031660029004614e4792919061632f565b50600b820181600b019080546001816001161561010002031660029004614e6f92919061632f565b50600c820181600c019080546001816001161561010002031660029004614e9792919061632f565b50600d820181600d019080546001816001161561010002031660029004614ebf92919061632f565b50600e820181600e019080546001816001161561010002031660029004614ee792919061632f565b50600f820181600f019080546001816001161561010002031660029004614f0f92919061632f565b5060108201816010019080546001816001161561010002031660029004614f3792919061632f565b50601182015481601101556012820154816012015560138201816013019080546001816001161561010002031660029004614f7392919061632f565b5060148201816014019080546001816001161561010002031660029004614f9b92919061632f565b5060158201816015019080546001816001161561010002031660029004614fc392919061632f565b5060168201816016019080546001816001161561010002031660029004614feb92919061632f565b506017820181601701908054600181600116156101000203166002900461501392919061632f565b506018820154816018015560198201548160190155601a820181601a01908054600181600116156101000203166002900461504f92919061632f565b50601b82810154908201805460ff191660ff9092161515919091179055601c8083015490820155601d808301805461509d92840191906002610100600183161502600019019091160461632f565b50601e82015481601e0155601f820181601f0190805460018160011615610100020316600290046150cf92919061632f565b50602082018160200190805460018160011615610100020316600290046150f792919061632f565b506021820181602101908054600181600116156101000203166002900461511f92919061632f565b50602282810180546151349284019190616528565b506023820154816023015560248201548160240155602582018160250190805461515f929190616592565b506026918201549101556040805187815290517fe8cc6b51c84dfe429ff322bdedb27dd8d1a2e139ffa16614ae2ece92a81be7329181900360200190a1505050505050565b6151ad33611360565b6151eb5760405160e560020a62461bcd0281526004018080602001828103825260238152602001806168e16023913960400191505060405180910390fd5b60078054600181019091557fa66cc928b5edb82af9bd49922954155ab7b0942694bea4ce44661d9a8736c688018190556000818152600960205260409020805460ff1916905561523961664c565b6000828152600a602090815260409091208251815581830151805184936152679260018501929101906164ba565b50604082015180516152839160028401916020909101906164ba565b506060820151805161529f9160038401916020909101906164ba565b50608082015180516152bb9160048401916020909101906164ba565b5060a082015180516152d79160058401916020909101906164ba565b5060c082015180516152f39160068401916020909101906164ba565b5060e0820151805161530f9160078401916020909101906164ba565b50610100820151805161532c9160088401916020909101906164ba565b506101208201516009820155610140820151805161535491600a8401916020909101906164ba565b50610160820151805161537191600b8401916020909101906164ba565b50610180820151805161538e91600c8401916020909101906164ba565b506101a082015180516153ab91600d8401916020909101906164ba565b506101c082015180516153c891600e8401916020909101906164ba565b506101e082015180516153e591600f8401916020909101906164ba565b5061020082015180516154029160108401916020909101906164ba565b506102208201516011820155610240820151601282015561026082015180516154359160138401916020909101906164ba565b5061028082015180516154529160148401916020909101906164ba565b506102a0820151805161546f9160158401916020909101906164ba565b506102c0820151805161548c9160168401916020909101906164ba565b506102e082015180516154a99160178401916020909101906164ba565b506103008201516018820155610320820151601982015561034082015180516154dc91601a8401916020909101906164ba565b50610360820151601b8201805460ff1916911515919091179055610380820151601c8201556103a0820151805161551d91601d8401916020909101906164ba565b506103c0820151601e8201556103e0820151805161554591601f8401916020909101906164ba565b506104008201518051615560916020808501929101906164ba565b50610420820151805161557d9160218401916020909101906164ba565b50610440820151805161559a91602284019160209091019061676c565b50610460820151602382015561048082015160248201556104a082015180516155cd9160258401916020909101906167b9565b506104c091909101516026909101556040805183815290517f85d5dddd87dad32d097a6ef61abbc00cc6424a1e2d97b32d920768215049ac9d9181900360200190a15050565b61561c33611777565b61565a5760405160e560020a62461bcd02815260040180806020018281038252602381526020018061689c6023913960400191505060405180910390fd5b600081815260096020908152604091829020805460ff19166003179055815183815291517fb9b4a9b6efb172e7d625b95fa0cb2aa336118bf2ed4ffd1e432f7a86214717729281900390910190a150565b6156b6600182616271565b604051600160a060020a038216907f2641281878622361a13e893a468f5bebcd09d4813a887b270a25da7a9a884f7390600090a250565b6156f86005826162b9565b604051600160a060020a038216907f47258a1ec64a4dcec3d8dbdd9d375c86c7e1e257caad15305f1cce65392ffce690600090a250565b61573a6004826162b9565b604051600160a060020a038216907f85782b7ca5ff6b695aa818226ff1655734742883fb10256cb9fa660f49aedc0990600090a250565b61577c600082616271565b604051600160a060020a038216907fa5e0f060af304ab17dd418c7927e3da3ae7868189bf387aee09ab179ccc572f290600090a250565b6157bc33611777565b6157fa5760405160e560020a62461bcd02815260040180806020018281038252602381526020018061689c6023913960400191505060405180910390fd5b6000878152600960209081526040808320805460ff19166005179055600a909152902061582b6017820188886165de565b506018810185905560198101849055615848601a820184846165de565b5080600a60008a8152602001908152602001600020600082015481600001556001820181600101908054600181600116156101000203166002900461588e92919061632f565b50600282810180546158b392848101929160001961010060018316150201160461632f565b50600382018160030190805460018160011615610100020316600290046158db92919061632f565b506004820181600401908054600181600116156101000203166002900461590392919061632f565b506005820181600501908054600181600116156101000203166002900461592b92919061632f565b506006820181600601908054600181600116156101000203166002900461595392919061632f565b506007820181600701908054600181600116156101000203166002900461597b92919061632f565b50600882018160080190805460018160011615610100020316600290046159a392919061632f565b5060098201548160090155600a820181600a0190805460018160011615610100020316600290046159d592919061632f565b50600b820181600b0190805460018160011615610100020316600290046159fd92919061632f565b50600c820181600c019080546001816001161561010002031660029004615a2592919061632f565b50600d820181600d019080546001816001161561010002031660029004615a4d92919061632f565b50600e820181600e019080546001816001161561010002031660029004615a7592919061632f565b50600f820181600f019080546001816001161561010002031660029004615a9d92919061632f565b5060108201816010019080546001816001161561010002031660029004615ac592919061632f565b50601182015481601101556012820154816012015560138201816013019080546001816001161561010002031660029004615b0192919061632f565b5060148201816014019080546001816001161561010002031660029004615b2992919061632f565b5060158201816015019080546001816001161561010002031660029004615b5192919061632f565b5060168201816016019080546001816001161561010002031660029004615b7992919061632f565b5060178201816017019080546001816001161561010002031660029004615ba192919061632f565b506018820154816018015560198201548160190155601a820181601a019080546001816001161561010002031660029004615bdd92919061632f565b50601b82810154908201805460ff191660ff9092161515919091179055601c8083015490820155601d8083018054615c2b92840191906002610100600183161502600019019091160461632f565b50601e82015481601e0155601f820181601f019080546001816001161561010002031660029004615c5d92919061632f565b5060208201816020019080546001816001161561010002031660029004615c8592919061632f565b5060218201816021019080546001816001161561010002031660029004615cad92919061632f565b5060228281018054615cc29284019190616528565b5060238201548160230155602482015481602401556025820181602501908054615ced929190616592565b506026820154816026015590505080600b848460405180838380828437808301925050509250505090815260200160405180910390206000820154816000015560018201816001019080546001816001161561010002031660029004615d5492919061632f565b5060028281018054615d7992848101929160001961010060018316150201160461632f565b5060038201816003019080546001816001161561010002031660029004615da192919061632f565b5060048201816004019080546001816001161561010002031660029004615dc992919061632f565b5060058201816005019080546001816001161561010002031660029004615df192919061632f565b5060068201816006019080546001816001161561010002031660029004615e1992919061632f565b5060078201816007019080546001816001161561010002031660029004615e4192919061632f565b5060088201816008019080546001816001161561010002031660029004615e6992919061632f565b5060098201548160090155600a820181600a019080546001816001161561010002031660029004615e9b92919061632f565b50600b820181600b019080546001816001161561010002031660029004615ec392919061632f565b50600c820181600c019080546001816001161561010002031660029004615eeb92919061632f565b50600d820181600d019080546001816001161561010002031660029004615f1392919061632f565b50600e820181600e019080546001816001161561010002031660029004615f3b92919061632f565b50600f820181600f019080546001816001161561010002031660029004615f6392919061632f565b5060108201816010019080546001816001161561010002031660029004615f8b92919061632f565b50601182015481601101556012820154816012015560138201816013019080546001816001161561010002031660029004615fc792919061632f565b5060148201816014019080546001816001161561010002031660029004615fef92919061632f565b506015820181601501908054600181600116156101000203166002900461601792919061632f565b506016820181601601908054600181600116156101000203166002900461603f92919061632f565b506017820181601701908054600181600116156101000203166002900461606792919061632f565b506018820154816018015560198201548160190155601a820181601a0190805460018160011615610100020316600290046160a392919061632f565b50601b82810154908201805460ff191660ff9092161515919091179055601c8083015490820155601d80830180546160f192840191906002610100600183161502600019019091160461632f565b50601e82015481601e0155601f820181601f01908054600181600116156101000203166002900461612392919061632f565b506020820181602001908054600181600116156101000203166002900461614b92919061632f565b506021820181602101908054600181600116156101000203166002900461617392919061632f565b50602282810180546161889284019190616528565b50602382015481602301556024820154816024015560258201816025019080546161b3929190616592565b506026918201549101556040805189815290517f4dcc0f718395e0a5fa77707ee74a5254b7d7c6956f0526b5e1face5cad09c7439181900360200190a15050505050505050565b6162056006826162b9565b604051600160a060020a038216907fc0fb512adbd8ae33f70ed367e35e1615f181c690ff76d847c54706603df2e70b90600090a250565b6000600160a060020a03821661625157600080fd5b50600160a060020a03166000908152602091909152604090205460ff1690565b600160a060020a03811661628457600080fd5b61628e828261623c565b61629757600080fd5b600160a060020a0316600090815260209190915260409020805460ff19169055565b600160a060020a0381166162cc57600080fd5b6162d6828261623c565b156162e057600080fd5b600160a060020a0316600090815260209190915260409020805460ff19166001179055565b60405180606001604052806000600160a060020a0316815260200160608152602001606081525090565b828054600181600116156101000203166002900490600052602060002090601f016020900481019282601f1061636857805485556163a4565b828001600101855582156163a457600052602060002091601f016020900482015b828111156163a4578254825591600101919060010190616389565b506163b092915061680e565b5090565b50805460018160011615610100020316600290046000825580601f106163da57506163f8565b601f0160209004906000526020600020908101906163f8919061680e565b50565b8280548282559060005260206000209060030281019282156164ae5760005260206000209160030282015b828111156164ae5782548254600160a060020a031916600160a060020a039091161782556001808401805485928592616477928285019260026000199183161561010002919091019091160461632f565b506002828101805461649c92848101929160001961010060018316150201160461632f565b50505091600301919060030190616426565b506163b0929150616823565b828054600181600116156101000203166002900490600052602060002090601f016020900481019282601f106164fb57805160ff19168380011785556163a4565b828001600101855582156163a4579182015b828111156163a457825182559160200191906001019061650d565b8280548282559060005260206000209081019282156165865760005260206000209182015b82811115616586578282908054600181600116156101000203166002900461657692919061632f565b509160010191906001019061654d565b506163b092915061685f565b8280548282559060005260206000209081019282156165d25760005260206000209182015b828111156165d25782548255916001019190600101906165b7565b506163b092915061687c565b828054600181600116156101000203166002900490600052602060002090601f016020900481019282601f1061661f5782800160ff198235161785556163a4565b828001600101855582156163a4579182015b828111156163a4578235825591602001919060010190616631565b604051806104e0016040528060008152602001606081526020016060815260200160608152602001606081526020016060815260200160608152602001606081526020016060815260200160008152602001606081526020016060815260200160608152602001606081526020016060815260200160608152602001606081526020016000815260200160008152602001606081526020016060815260200160608152602001606081526020016060815260200160008152602001600081526020016060815260200160001515815260200160008152602001606081526020016000815260200160608152602001606081526020016060815260200160608152602001600081526020016000815260200160608152602001600081525090565b828054828255906000526020600020908101928215616586579160200282015b8281111561658657825180516167a99184916020909101906164ba565b509160200191906001019061678c565b8280548282559060005260206000209081019282156165d2579160200282015b828111156165d25782518254600160a060020a031916600160a060020a039091161782556020909201916001909101906167d9565b5b808211156163b0576000815560010161680f565b808211156163b0578054600160a060020a0319168155600061684860018301826163b4565b6168566002830160006163b4565b50600301616823565b808211156163b057600061687382826163b4565b5060010161685f565b5b808211156163b0578054600160a060020a031916815560010161687d56fe4f6e6c7920534341732063616e2061636365737320746869732066756e6374696f6e2e4f6e6c792053544c2063616e2061636365737320746869732066756e6374696f6e2e4f6e6c7920535041732063616e20706572666f726d20746869732066756e6374696f6ea2646970667358221220cfacfdaeffea6682f23b124ebba4d3c230966353824785a569c9bf906a97710564736f6c63430007000033",
  "immutableReferences": {},
  "source": "// SPDX-License-Identifier: GPL-3.0\r\npragma solidity ^0.7.0;\r\n\r\n\r\n//importing all roles\r\n\r\nimport \"./roles/FarmerRole.sol\";\r\nimport \"./roles/SeedCertificationAgency.sol\";\r\nimport \"./roles/SeedProducingAgency.sol\";\r\nimport \"./roles/SeedProcessingPlant.sol\";\r\nimport \"./roles/SeedTestingLab.sol\";\r\n\r\ncontract SupplyChain is FarmerRole, SCARole, SPARole, SPPRole, STLRole {\r\n\r\n    uint[] arrOfAppIds;\r\n    \r\n    enum State {\r\n        \r\n        Applied,     //0\r\n        Verification,    //1\r\n        Inspection,   //2\r\n        AssignSPP,    //3\r\n        SeedProcessing,    //4\r\n        SampleTest,  //5\r\n        Certification,   //6\r\n        Granted,      //7\r\n        Sold,        //8\r\n        Returned     //9\r\n    }\r\n\r\n    uint private numOfStates = 10;\r\n\r\n    struct SPA {\r\n        uint appid;\r\n        string lotNumber;\r\n        string owner;\r\n        string crop;\r\n        string variety;\r\n        string sourceTagNo;\r\n        string sourceClass;\r\n        string destinationClass;\r\n        string sourceQuantity;\r\n        uint sourceDateOfIssue;\r\n        string growerName;\r\n        string spaName;\r\n        string sourceStoreHouse;\r\n        string destiStoreHouse;\r\n        string sgId;\r\n        string finYear;\r\n        string season;\r\n        uint landRecordsKhataNo;\r\n        uint landRecordsPlotNo;\r\n        string landRecordsArea;\r\n        string cropRegCode;\r\n        string sppName; \r\n        string sppId;\r\n        string totalQuantityProcessed;\r\n        uint processingDate;\r\n        uint verificationDate;\r\n        string sampleSecreteCode;\r\n        bool samplePassed;\r\n        uint sampleTestDate;\r\n        string certificateNo;\r\n        uint certificateDate;\r\n        string tagSeries;\r\n        string tagIssuedRangeFrom;\r\n        string tagIssuedRangeTo;\r\n        string[] tags;\r\n        uint noOfTagsIssued;\r\n        uint certificateValidity;\r\n        address[] farmersSoldTo;\r\n        uint lastBagIdSold;\r\n    }\r\n    \r\n    event ApplicationReceived(uint appid);\r\n    event VerificationStageReached(uint appid);\r\n    event InspectionStageReached(uint appid);\r\n    event WaitingToAssignSPP(uint appid);\r\n    event SeedProcessingStageReached(uint appid);\r\n    event SampleTestStageReached(uint appid);\r\n    event CertificateStageReached(uint appid);\r\n    event CertificateGranted(uint appid);\r\n    \r\n    State constant defaultState = State.Applied;\r\n    mapping (uint => State) mapState; \r\n    mapping (uint => SPA) spaOfId;\r\n    mapping (string=>SPA) secreteCodetoSPA; //for stl\r\n\r\n//     function to generate empty AppId if required\r\n    function generateEmptyApplication(uint appid) external onlySPA{\r\n        arrOfAppIds.push(appid);\r\n        mapState[appid] = defaultState;\r\n        SPA memory spa;\r\n        spaOfId[appid] = spa;\r\n\r\n        emit ApplicationReceived(appid);\r\n    }\r\n\r\n    // function to generate appln id and map to its first default state\r\n    function generateApplicationPart1(uint appid,\r\n        string calldata lotNumber,\r\n        string calldata Spaowner,\r\n        string calldata crop,\r\n        string calldata variety,\r\n        string calldata sourceTagNo\r\n    ) external onlySPA {\r\n        arrOfAppIds.push(appid);\r\n\r\n        mapState[appid] = State.Verification;\r\n        SPA storage spa;\r\n        spa.appid = appid;\r\n        spa.lotNumber = lotNumber;\r\n        spa.owner = Spaowner;\r\n        spa.crop = crop;\r\n        spa.variety = variety;\r\n        spa.sourceTagNo = sourceTagNo;\r\n\r\n        spaOfId[appid] = spa;\r\n\r\n    }\r\n\r\n    function generateApplicationPart2(uint appid,\r\n        string memory sourceClass,\r\n        string memory destinationClass,\r\n        string memory sourceQuantity,\r\n        uint sourceDateOfIssue,\r\n        string memory growerName,\r\n        string memory spaName\r\n    ) external onlySPA {\r\n        SPA storage spa = spaOfId[appid];\r\n\r\n        spa.sourceClass = sourceClass;\r\n        spa.destinationClass = destinationClass;\r\n        spa.sourceQuantity = sourceQuantity;\r\n        spa.sourceDateOfIssue = sourceDateOfIssue;\r\n        spa.growerName = growerName;\r\n        spa.spaName = spaName;\r\n        spaOfId[appid] = spa;\r\n    }\r\n\r\n    function generateApplicationPart3(uint appid,\r\n        string memory sourceStoreHouse,\r\n        string memory destiStoreHouse,\r\n        string memory sgId,\r\n        string memory finYear,\r\n        string memory season,\r\n        uint landRecordsKhataNo,\r\n        uint landRecordsPlotNo,\r\n        string memory landRecordsArea,\r\n        string memory cropRegCode\r\n    ) external onlySPA {\r\n        SPA storage spa = spaOfId[appid];\r\n\r\n        spa.sourceStoreHouse = sourceStoreHouse;\r\n        spa.destiStoreHouse = destiStoreHouse;\r\n        spa.sgId = sgId;\r\n        spa.finYear = finYear;\r\n        spa.season = season;\r\n        spa.landRecordsKhataNo = landRecordsKhataNo;\r\n        spa.landRecordsPlotNo = landRecordsPlotNo;\r\n        spa.landRecordsArea = landRecordsArea;\r\n        spa.cropRegCode = cropRegCode;\r\n\r\n        spaOfId[appid] = spa;\r\n        \r\n        emit VerificationStageReached(appid);\r\n\r\n    }\r\n\r\n    function verifySPAData(uint appid) external onlySCA {\r\n        mapState[appid] = State.Inspection;\r\n\r\n        emit InspectionStageReached(appid);\r\n    }\r\n\r\n    function inspectData(uint appid) external onlySCA {\r\n        mapState[appid] = State.AssignSPP;\r\n\r\n        emit WaitingToAssignSPP(appid);\r\n    }\r\n \r\n\r\n    function assignSPP(uint appid,\r\n        string calldata sppName,\r\n        string calldata sppId\r\n    ) external onlySPA {\r\n\r\n        mapState[appid] = State.SeedProcessing;\r\n        SPA storage spa = spaOfId[appid];\r\n\r\n        spa.sppName = sppName;\r\n        spa.sppId = sppId;\r\n\r\n        spaOfId[appid] = spa;\r\n\r\n        emit SeedProcessingStageReached(appid);\r\n    }\r\n\r\n    function uploadSeedProcessingResults(uint appid,\r\n        string calldata totalQuant,\r\n        uint processingDate,\r\n        uint verificationDate,\r\n        string calldata sampleSecreteCode\r\n    ) external onlySCA {\r\n\r\n        mapState[appid] = State.SampleTest;\r\n        SPA storage spa = spaOfId[appid];\r\n\r\n        spa.totalQuantityProcessed = totalQuant;\r\n        spa.processingDate = processingDate;\r\n        spa.verificationDate = verificationDate;\r\n        spa.sampleSecreteCode = sampleSecreteCode;\r\n\r\n        spaOfId[appid] = spa;\r\n        secreteCodetoSPA[sampleSecreteCode] = spa;\r\n\r\n        emit SampleTestStageReached(appid);\r\n    }\r\n\r\n    function uploadSampleTestResults(string calldata sampleSecreteCode,\r\n        bool samplePassed,\r\n        uint sampleTestDate\r\n    ) external onlySTL {\r\n\r\n        SPA storage spa = secreteCodetoSPA[sampleSecreteCode];\r\n        uint appid = spa.appid;\r\n        mapState[appid] = State.Certification;\r\n\r\n        spa.samplePassed = samplePassed;\r\n        spa.sampleTestDate = sampleTestDate;\r\n\r\n        secreteCodetoSPA[sampleSecreteCode] = spa;\r\n        spaOfId[appid] = spa;\r\n\r\n        emit CertificateStageReached(appid);\r\n    }\r\n\r\n    function grantCertificate(uint appid,\r\n        string memory certificateNo,\r\n        uint certificateDate,\r\n        string memory tagSeries,\r\n        string calldata tagRangeFrom,\r\n        uint tagNumberStart,\r\n        string calldata tagRangeTo,\r\n        uint noOfTags,\r\n        uint certiValidity\r\n    ) external onlySCA {\r\n\r\n        mapState[appid] = State.Granted;\r\n        SPA storage spa = spaOfId[appid];\r\n\r\n        spa.certificateNo = certificateNo;\r\n        spa.certificateDate = certificateDate;\r\n        spa.tagSeries = tagSeries;\r\n        spa.tagIssuedRangeFrom = tagRangeFrom;\r\n        spa.tagIssuedRangeTo = tagRangeTo;\r\n        spa.noOfTagsIssued = noOfTags;\r\n        spa.certificateValidity = certiValidity;\r\n        spa.lastBagIdSold = tagNumberStart - 1;\r\n\r\n        // this loop creates and stores all tags of the bags for farmer to buy from\r\n        for(uint i=0; i<noOfTags; i++){\r\n\r\n            string memory tagno = string(abi.encodePacked(tagSeries, \"-\", (tagNumberStart+i)));\r\n            spa.tags.push(tagno);\r\n        }\r\n\r\n        spaOfId[appid] = spa;\r\n        secreteCodetoSPA[spa.sampleSecreteCode] = spa;\r\n\r\n        uint i=0;\r\n        while(i < arrOfAppIds.length){\r\n            if(arrOfAppIds[i] == appid){\r\n                break;\r\n            }\r\n        }\r\n        arrOfAppIds[i] = arrOfAppIds[arrOfAppIds.length - 1];\r\n        arrOfAppIds.pop();\r\n\r\n        emit CertificateGranted(appid);\r\n    }\r\n//\r\n    function sellBagsToFarmer(uint appid, address farmer, uint noOfBags) external returns (string memory TagStartFrom) {\r\n        SPA storage spa = spaOfId[appid];\r\n\r\n        TagStartFrom = string(abi.encodePacked(spa.tagSeries, \"-\",  spa.lastBagIdSold+1));\r\n        spa.lastBagIdSold += noOfBags;\r\n\r\n        // here will have to check if this farmer already exists in array, If yes, then skip\r\n        spa.farmersSoldTo.push(farmer);\r\n        spaOfId[appid] = spa;\r\n        secreteCodetoSPA[spa.sampleSecreteCode] = spa;\r\n    }\r\n\r\n}\r\n",
  "sourcePath": "D:/IEEE Hackathon/SeedChain/contracts/SupplyChain.sol",
  "compiler": {
    "name": "solc",
    "version": "0.7.0+commit.9e61f92b.Emscripten.clang"
  },
  "schemaVersion": "3.3.1",
  "updatedAt": "2020-10-31T18:39:32.878Z",
  "devdoc": {
    "kind": "dev",
    "methods": {},
    "version": 1
  },
  "userdoc": {
    "kind": "user",
    "methods": {},
    "version": 1
  }
}