{
  "contractName": "SupplyChain",
  "abi": [
    {
      "anonymous": false,
      "inputs": [
        {
          "indexed": false,
          "internalType": "uint256",
          "name": "appid",
          "type": "uint256"
        }
      ],
      "name": "ApplicationReceived",
      "type": "event"
    },
    {
      "anonymous": false,
      "inputs": [
        {
          "indexed": false,
          "internalType": "uint256",
          "name": "appid",
          "type": "uint256"
        }
      ],
      "name": "ApplicationRejected",
      "type": "event"
    },
    {
      "anonymous": false,
      "inputs": [
        {
          "indexed": false,
          "internalType": "uint256",
          "name": "appid",
          "type": "uint256"
        }
      ],
      "name": "CertificateGranted",
      "type": "event"
    },
    {
      "anonymous": false,
      "inputs": [
        {
          "indexed": false,
          "internalType": "uint256",
          "name": "appid",
          "type": "uint256"
        }
      ],
      "name": "Harvested",
      "type": "event"
    },
    {
      "anonymous": false,
      "inputs": [
        {
          "indexed": false,
          "internalType": "uint256",
          "name": "appid",
          "type": "uint256"
        }
      ],
      "name": "Inspection1Complete",
      "type": "event"
    },
    {
      "anonymous": false,
      "inputs": [
        {
          "indexed": false,
          "internalType": "uint256",
          "name": "appid",
          "type": "uint256"
        }
      ],
      "name": "Inspection2Complete",
      "type": "event"
    },
    {
      "anonymous": false,
      "inputs": [
        {
          "indexed": false,
          "internalType": "uint256",
          "name": "appid",
          "type": "uint256"
        }
      ],
      "name": "Packaged",
      "type": "event"
    },
    {
      "anonymous": false,
      "inputs": [
        {
          "indexed": false,
          "internalType": "uint256",
          "name": "appid",
          "type": "uint256"
        }
      ],
      "name": "SampleTestConducted",
      "type": "event"
    },
    {
      "inputs": [],
      "name": "isOwner",
      "outputs": [
        {
          "internalType": "bool",
          "name": "",
          "type": "bool"
        }
      ],
      "stateMutability": "view",
      "type": "function",
      "constant": true
    }
  ],
  "bytecode": "0x6080604052348015600f57600080fd5b5060d88061001e6000396000f3fe6080604052348015600f57600080fd5b506004361060285760003560e01c80638f32d59b14602d575b600080fd5b6033604b565b60405180821515815260200191505060405180910390f35b60008060009054906101000a900473ffffffffffffffffffffffffffffffffffffffff1673ffffffffffffffffffffffffffffffffffffffff163373ffffffffffffffffffffffffffffffffffffffff161490509056fea264697066735822122020873b26552bb804adb0c25ebb30754de14181618bed92386f1366181d740f6164736f6c63430007000033",
  "immutableReferences": {},
  "source": "// SPDX-License-Identifier: GPL-3.0\r\npragma solidity ^0.7.0;\r\n\r\ncontract SupplyChain {\r\n    \r\n    address owner;\r\n    \r\n    enum State {\r\n        Applied,     //0\r\n        Inspect1,    //1\r\n        Harvested,   //2\r\n        Inspect2,    //3\r\n        Packaged,    //4\r\n        SampleTest,  //5\r\n        Granted,     //6\r\n        Rejected     //7\r\n    }\r\n    \r\n    event ApplicationReceived(uint appid);\r\n    event Inspection1Complete(uint appid);\r\n    event Harvested(uint appid);\r\n    event Inspection2Complete(uint appid);\r\n    event Packaged(uint appid);\r\n    event SampleTestConducted(uint appid);\r\n    event CertificateGranted(uint appid);\r\n    event ApplicationRejected(uint appid);\r\n    \r\n    State constant defaultState = State.Applied;\r\n    \r\n    modifier onlyOwner(){\r\n        require(isOwner(),\r\n        \"You are not the owner\");\r\n        _;\r\n    }\r\n    \r\n    //Check if calling address is of the owner\r\n    function isOwner() public view returns (bool) {\r\n        return (msg.sender == owner);\r\n    }\r\n    \r\n    // Define a modifer that verifies the Caller\r\n    modifier verifyCaller(address _address) {\r\n    require(msg.sender == _address,\r\n    \"Not the right caller\");\r\n    _;\r\n    }\r\n    \r\n       \r\n    \r\n    \r\n}\r\n",
  "sourcePath": "C:/Users/RIYA/Downloads/IEEE Hack/SeedChain/contracts/SupplyChain.sol",
  "compiler": {
    "name": "solc",
    "version": "0.7.0+commit.9e61f92b.Emscripten.clang"
  },
  "schemaVersion": "3.3.1",
  "updatedAt": "2020-10-30T19:37:37.885Z",
  "networkType": "ethereum",
  "devdoc": {
    "kind": "dev",
    "methods": {},
    "version": 1
  },
  "userdoc": {
    "kind": "user",
    "methods": {},
    "version": 1
  }
}