{
  "contractName": "SupplyChain",
  "abi": [
    {
      "constant": false,
      "inputs": [],
      "name": "renounceInspector",
      "outputs": [],
      "payable": false,
      "stateMutability": "nonpayable",
      "type": "function"
    },
    {
      "constant": true,
      "inputs": [
        {
          "name": "account",
          "type": "address"
        }
      ],
      "name": "isInspector",
      "outputs": [
        {
          "name": "",
          "type": "bool"
        }
      ],
      "payable": false,
      "stateMutability": "view",
      "type": "function"
    },
    {
      "constant": true,
      "inputs": [
        {
          "name": "account",
          "type": "address"
        }
      ],
      "name": "isLabAnalyst",
      "outputs": [
        {
          "name": "",
          "type": "bool"
        }
      ],
      "payable": false,
      "stateMutability": "view",
      "type": "function"
    },
    {
      "constant": false,
      "inputs": [
        {
          "name": "account",
          "type": "address"
        }
      ],
      "name": "addInspector",
      "outputs": [],
      "payable": false,
      "stateMutability": "nonpayable",
      "type": "function"
    },
    {
      "constant": false,
      "inputs": [
        {
          "name": "account",
          "type": "address"
        }
      ],
      "name": "addFarmer",
      "outputs": [],
      "payable": false,
      "stateMutability": "nonpayable",
      "type": "function"
    },
    {
      "constant": false,
      "inputs": [],
      "name": "renounceFarmer",
      "outputs": [],
      "payable": false,
      "stateMutability": "nonpayable",
      "type": "function"
    },
    {
      "constant": true,
      "inputs": [
        {
          "name": "account",
          "type": "address"
        }
      ],
      "name": "isFarmer",
      "outputs": [
        {
          "name": "",
          "type": "bool"
        }
      ],
      "payable": false,
      "stateMutability": "view",
      "type": "function"
    },
    {
      "constant": false,
      "inputs": [],
      "name": "renounceLabAnalyst",
      "outputs": [],
      "payable": false,
      "stateMutability": "nonpayable",
      "type": "function"
    },
    {
      "constant": false,
      "inputs": [
        {
          "name": "account",
          "type": "address"
        }
      ],
      "name": "addLabAnalyst",
      "outputs": [],
      "payable": false,
      "stateMutability": "nonpayable",
      "type": "function"
    },
    {
      "inputs": [],
      "payable": false,
      "stateMutability": "nonpayable",
      "type": "constructor"
    },
    {
      "anonymous": false,
      "inputs": [
        {
          "indexed": false,
          "name": "appid",
          "type": "uint256"
        }
      ],
      "name": "ApplicationReceived",
      "type": "event"
    },
    {
      "anonymous": false,
      "inputs": [
        {
          "indexed": false,
          "name": "appid",
          "type": "uint256"
        }
      ],
      "name": "Inspection1Complete",
      "type": "event"
    },
    {
      "anonymous": false,
      "inputs": [
        {
          "indexed": false,
          "name": "appid",
          "type": "uint256"
        }
      ],
      "name": "Harvested",
      "type": "event"
    },
    {
      "anonymous": false,
      "inputs": [
        {
          "indexed": false,
          "name": "appid",
          "type": "uint256"
        }
      ],
      "name": "Inspection2Complete",
      "type": "event"
    },
    {
      "anonymous": false,
      "inputs": [
        {
          "indexed": false,
          "name": "appid",
          "type": "uint256"
        }
      ],
      "name": "Packaged",
      "type": "event"
    },
    {
      "anonymous": false,
      "inputs": [
        {
          "indexed": false,
          "name": "appid",
          "type": "uint256"
        }
      ],
      "name": "SampleTestConducted",
      "type": "event"
    },
    {
      "anonymous": false,
      "inputs": [
        {
          "indexed": false,
          "name": "appid",
          "type": "uint256"
        }
      ],
      "name": "CertificateGranted",
      "type": "event"
    },
    {
      "anonymous": false,
      "inputs": [
        {
          "indexed": false,
          "name": "appid",
          "type": "uint256"
        }
      ],
      "name": "ApplicationRejected",
      "type": "event"
    },
    {
      "anonymous": false,
      "inputs": [
        {
          "indexed": true,
          "name": "account",
          "type": "address"
        }
      ],
      "name": "LabAnalystAdded",
      "type": "event"
    },
    {
      "anonymous": false,
      "inputs": [
        {
          "indexed": true,
          "name": "account",
          "type": "address"
        }
      ],
      "name": "LabAnalystRemoved",
      "type": "event"
    },
    {
      "anonymous": false,
      "inputs": [
        {
          "indexed": true,
          "name": "account",
          "type": "address"
        }
      ],
      "name": "InspectorAdded",
      "type": "event"
    },
    {
      "anonymous": false,
      "inputs": [
        {
          "indexed": true,
          "name": "account",
          "type": "address"
        }
      ],
      "name": "InspectorRemoved",
      "type": "event"
    },
    {
      "anonymous": false,
      "inputs": [
        {
          "indexed": true,
          "name": "account",
          "type": "address"
        }
      ],
      "name": "FarmerAdded",
      "type": "event"
    },
    {
      "anonymous": false,
      "inputs": [
        {
          "indexed": true,
          "name": "account",
          "type": "address"
        }
      ],
      "name": "FarmerRemoved",
      "type": "event"
    },
    {
      "constant": true,
      "inputs": [],
      "name": "isOwner",
      "outputs": [
        {
          "name": "",
          "type": "bool"
        }
      ],
      "payable": false,
      "stateMutability": "view",
      "type": "function"
    }
  ],
  "bytecode": "0x608060405234801561001057600080fd5b5060038054600160a060020a03191633179055610596806100326000396000f3fe6080604052600436106100a35763ffffffff7c01000000000000000000000000000000000000000000000000000000006000350416630b20dbbe81146100a85780632cdad41c146100bf57806356710784146101065780637e4584921461013957806380c3f96d1461016c57806380fc0ce41461019f5780638f32d59b146101b4578063b9429069146101c9578063c40a1fcf146101fc578063d46c7c2114610211575b600080fd5b3480156100b457600080fd5b506100bd610244565b005b3480156100cb57600080fd5b506100f2600480360360208110156100e257600080fd5b5035600160a060020a031661024f565b604080519115158252519081900360200190f35b34801561011257600080fd5b506100f26004803603602081101561012957600080fd5b5035600160a060020a0316610268565b34801561014557600080fd5b506100bd6004803603602081101561015c57600080fd5b5035600160a060020a031661027b565b34801561017857600080fd5b506100bd6004803603602081101561018f57600080fd5b5035600160a060020a0316610287565b3480156101ab57600080fd5b506100bd610290565b3480156101c057600080fd5b506100f2610299565b3480156101d557600080fd5b506100f2600480360360208110156101ec57600080fd5b5035600160a060020a03166102aa565b34801561020857600080fd5b506100bd6102bc565b34801561021d57600080fd5b506100bd6004803603602081101561023457600080fd5b5035600160a060020a03166102c5565b61024d336102ce565b565b600061026260018363ffffffff6102d716565b92915050565b600061026260028363ffffffff6102d716565b6102848161030e565b50565b61028481610356565b61024d3361039e565b600354600160a060020a0316331490565b6000610262818363ffffffff6102d716565b61024d336103a7565b610284816103b0565b610284816103f8565b6000600160a060020a03821615156102ee57600080fd5b50600160a060020a03166000908152602091909152604090205460ff1690565b61031f60018263ffffffff61044016565b604051600160a060020a038216907f9ca2a3611f65b351a79d20d5314a16e37fe9b947d2a36232e101bd615994450390600090a250565b61036760008263ffffffff61044016565b604051600160a060020a038216907f2e0ded4123377a3c2bc9a26f1717655a129e2f20752924d42e730ec89c83dbd090600090a250565b6102848161048e565b610284816104d6565b6103c160028263ffffffff61044016565b604051600160a060020a038216907fa3b7370cc2eb2b062a55e1015d19bcd6c48fc89ba7c709901a656cb51ea5f0bf90600090a250565b61040960018263ffffffff61051e16565b604051600160a060020a038216907f737c9e54b555afb1794817809534974cb61ead2136d82d4a8fecb34d0932922090600090a250565b600160a060020a038116151561045557600080fd5b61045f82826102d7565b1561046957600080fd5b600160a060020a0316600090815260209190915260409020805460ff19166001179055565b61049f60008263ffffffff61051e16565b604051600160a060020a038216907fa5e0f060af304ab17dd418c7927e3da3ae7868189bf387aee09ab179ccc572f290600090a250565b6104e760028263ffffffff61051e16565b604051600160a060020a038216907fd967aa181206c15faf057c34edec552c9ecd407af60c75517673c7731d98b86690600090a250565b600160a060020a038116151561053357600080fd5b61053d82826102d7565b151561054857600080fd5b600160a060020a0316600090815260209190915260409020805460ff1916905556fea165627a7a72305820a61f2b8d96faccde1ad1bf58de55d409710328f6df01b8a1be9812179bb47d610029",
  "source": "pragma solidity ^0.5.0;\r\n\r\nimport \"./roles/FarmerRole.sol\";\r\nimport \"./roles/InspectorRole.sol\";\r\nimport \"./roles/LabAnalystRole.sol\";\r\n\r\ncontract SupplyChain is FarmerRole, InspectorRole, LabAnalystRole {\r\n    \r\n    address owner;\r\n    \r\n    enum State {\r\n        Applied,     //0\r\n        Inspect1,    //1\r\n        Harvested,   //2\r\n        Inspect2,    //3\r\n        Packaged,    //4\r\n        SampleTest,  //5\r\n        Granted,     //6\r\n        Rejected     //7\r\n    }\r\n    \r\n    event ApplicationReceived(uint appid);\r\n    event Inspection1Complete(uint appid);\r\n    event Harvested(uint appid);\r\n    event Inspection2Complete(uint appid);\r\n    event Packaged(uint appid);\r\n    event SampleTestConducted(uint appid);\r\n    event CertificateGranted(uint appid);\r\n    event ApplicationRejected(uint appid);\r\n    \r\n    State constant defaultState = State.Applied;\r\n    \r\n    modifier onlyOwner(){\r\n        require(isOwner(),\r\n        \"You are not the owner\");\r\n        _;\r\n    }\r\n    \r\n    //Check if calling address is of the owner\r\n    function isOwner() public view returns (bool) {\r\n        return (msg.sender == owner);\r\n    }\r\n    \r\n    // Define a modifer that verifies the Caller\r\n    modifier verifyCaller(address _address) {\r\n    require(msg.sender == _address,\r\n    \"Not the right caller\");\r\n    _;\r\n    }\r\n    \r\n    constructor() public {\r\n        owner = msg.sender;\r\n    }\r\n    \r\n       \r\n    \r\n    \r\n}\r\n",
  "sourcePath": "D:/IEEE Hackathon/SeedChain/contracts/SupplyChain.sol",
  "compiler": {
    "name": "solc",
    "version": "0.5.0+commit.1d4f565a.Emscripten.clang"
  },
  "schemaVersion": "3.0.1",
  "updatedAt": "2020-10-30T16:29:46.111Z",
  "devdoc": {
    "methods": {}
  },
  "userdoc": {
    "methods": {}
  }
}