{
  "contractName": "UserRegistry",
  "abi": [
    {
      "constant": true,
      "inputs": [
        {
          "name": "",
          "type": "address"
        },
        {
          "name": "",
          "type": "uint256"
        }
      ],
      "name": "lab2farmers",
      "outputs": [
        {
          "name": "",
          "type": "address"
        }
      ],
      "payable": false,
      "stateMutability": "view",
      "type": "function"
    },
    {
      "constant": true,
      "inputs": [],
      "name": "owner",
      "outputs": [
        {
          "name": "",
          "type": "address"
        }
      ],
      "payable": false,
      "stateMutability": "view",
      "type": "function"
    },
    {
      "constant": true,
      "inputs": [
        {
          "name": "",
          "type": "address"
        },
        {
          "name": "",
          "type": "uint256"
        }
      ],
      "name": "inspector2farmers",
      "outputs": [
        {
          "name": "",
          "type": "address"
        }
      ],
      "payable": false,
      "stateMutability": "view",
      "type": "function"
    },
    {
      "constant": false,
      "inputs": [
        {
          "name": "applicant",
          "type": "address"
        },
        {
          "name": "inspector",
          "type": "address"
        }
      ],
      "name": "setInspector",
      "outputs": [],
      "payable": false,
      "stateMutability": "nonpayable",
      "type": "function"
    },
    {
      "constant": false,
      "inputs": [
        {
          "name": "applicant",
          "type": "address"
        },
        {
          "name": "lab",
          "type": "address"
        }
      ],
      "name": "setLabAnalyst",
      "outputs": [],
      "payable": false,
      "stateMutability": "nonpayable",
      "type": "function"
    },
    {
      "constant": true,
      "inputs": [
        {
          "name": "applicant",
          "type": "address"
        }
      ],
      "name": "getInspector",
      "outputs": [
        {
          "name": "",
          "type": "address"
        }
      ],
      "payable": false,
      "stateMutability": "view",
      "type": "function"
    },
    {
      "constant": true,
      "inputs": [
        {
          "name": "applicant",
          "type": "address"
        }
      ],
      "name": "getLabAnalyst",
      "outputs": [
        {
          "name": "",
          "type": "address"
        }
      ],
      "payable": false,
      "stateMutability": "view",
      "type": "function"
    }
  ],
  "bytecode": "0x608060405260008054600160a060020a0319163317905534801561002257600080fd5b506103cb806100326000396000f3fe6080604052600436106100825763ffffffff7c010000000000000000000000000000000000000000000000000000000060003504166348cf9c3b81146100875780638da5cb5b146100dc578063954784b1146100f1578063cf93dfbc1461012e578063d132931c14610161578063d611c3671461019a578063e8f7dfcf146101d5575b600080fd5b34801561009357600080fd5b506100c0600480360360408110156100aa57600080fd5b50600160a060020a038135169060200135610208565b60408051600160a060020a039092168252519081900360200190f35b3480156100e857600080fd5b506100c061023f565b3480156100fd57600080fd5b5061012c6004803603604081101561011457600080fd5b50600160a060020a038135811691602001351661024e565b005b34801561013a57600080fd5b506100c06004803603602081101561015157600080fd5b5035600160a060020a03166102cc565b34801561016d57600080fd5b506100c06004803603604081101561018457600080fd5b50600160a060020a0381351690602001356102ea565b3480156101a657600080fd5b5061012c600480360360408110156101bd57600080fd5b50600160a060020a0381358116916020013516610305565b3480156101e157600080fd5b506100c0600480360360208110156101f857600080fd5b5035600160a060020a0316610381565b60046020528160005260406000208181548110151561022357fe5b600091825260209091200154600160a060020a03169150829050565b600054600160a060020a031681565b600054600160a060020a031633811461026657600080fd5b50600160a060020a03918216600081815260026020908152604080832080549690951673ffffffffffffffffffffffffffffffffffffffff1996871681179095559382526004815292812080546001810182559082529290209091018054909216179055565b600160a060020a039081166000908152600260205260409020541690565b60036020528160005260406000208181548110151561022357fe5b600054600160a060020a031633811461031d57600080fd5b50600160a060020a03918216600081815260016020818152604080842080549790961673ffffffffffffffffffffffffffffffffffffffff199788168117909655948352600381529382208054918201815582529290209091018054909216179055565b600160a060020a03908116600090815260016020526040902054169056fea165627a7a723058201064a7d763d06384e262b93d67372185b5c7dd0eeb93c6a3f6e729461be741d80029",
  "source": "pragma solidity ^0.5.0;\r\n\r\n\r\ncontract UserRegistry {\r\n  address public owner = msg.sender;\r\n\r\n  mapping(address=>address) farmer2inspector;\r\n  mapping(address=>address) farmer2lab;\r\n  mapping(address=>address[]) public inspector2farmers;\r\n  mapping(address=>address[]) public lab2farmers;\r\n\r\n    modifier onlyBy(address _account)\r\n    {\r\n        require(msg.sender == _account);\r\n        _;\r\n    }\r\n\r\n  function setInspector (address applicant, address inspector) public onlyBy(owner) {\r\n    farmer2inspector[applicant] = inspector;\r\n    inspector2farmers[inspector].push(applicant);\r\n  }\r\n  \r\n  function setLabAnalyst(address applicant, address lab) public onlyBy(owner) {\r\n      farmer2lab[applicant] = lab;\r\n      lab2farmers[lab].push(applicant);\r\n  }\r\n\r\n  function getInspector (address applicant) public view returns(address) {\r\n    return farmer2inspector[applicant];\r\n  }\r\n  \r\n  function getLabAnalyst(address applicant) public view returns(address) {\r\n      return farmer2lab[applicant];\r\n  }\r\n  \r\n  \r\n}\r\n",
  "sourcePath": "D:/IEEE Hackathon/SeedChain/contracts/UserRegistry.sol",
  "compiler": {
    "name": "solc",
    "version": "0.5.0+commit.1d4f565a.Emscripten.clang"
  },
  "schemaVersion": "3.0.1",
  "updatedAt": "2020-10-30T16:29:46.122Z",
  "devdoc": {
    "methods": {}
  },
  "userdoc": {
    "methods": {}
  }
}